:1040000000800020FD85020029860200298602002A
:1040100029860200298602002986020029860200DC
:1040200029860200298602002986020029860200CC
:1040300029860200298602002986020029860200BC
:10404000F1480100C5B80000298602002986020057
:1040500029860200B17801002986020001B900001A
:104060002986020029860200298602008DE30100CC
:104070002DB90000B1E30100298602002986020063
:10408000298602002986020029860200298602006C
:10409000298602002986020015E301002986020014
:1040A000298602002986020029860200298602004C
:1040B0002986020029860200A1B800002986020094
:1040C000298602002986020029860200298602002C
:1040D000298602002986020029860200298602001C
:1040E00010B5054C237833B9044B13B10448AFF332
:1040F00000800123237010BD000500200000000097
:10410000F45D030008B5034B1BB103490348AFF34B
:10411000008008BD0000000004050020F45D0300DD
:10412000A3F5803A704700BF174B002B08BF134B15
:104130009D46FFF7F5FF00218B460F461348144AB2
:10414000121A29F09FF90E4B002B00D098470D4B07
:10415000002B00D098470020002104000D000D48DE
:10416000002802D00C48AFF3008029F0B7F82000F7
:1041700029001DF019FC28F0B9FD00BF000008005F
:10418000000000000000000000800020000500206A
:104190009022002000000000000000002DE9F04FF8
:1041A00003680C689C421546B8BF1C460422052CC7
:1041B00095B007460E462A7052DD6FF060439C4270
:1041C00080F2DB874FEA8408404626F0F2FD0123A7
:1041D000062CC0E90033C0E90233C0E90433039080
:1041E00005D0062240F822300132A242FAD13B68C3
:1041F000A34200F3B6876FF060439C42089480F2BC
:10420000CA87404626F0D5FDD7F800C00990A4EB38
:104210000C02002A0146634651DD01239A420360E5
:104220001BD0022A436018D0032A836015D0042AC9
:10423000C36012D0052A03610FD0062A43610CD057
:10424000062C00F08987062102E0A14200F0848755
:1042500040F8213001319142F7D1099963462EE0AF
:10426000002C02DD012303930368A342D8BF089406
:1042700000F37787E21A00F0F683002C40F36C8796
:1042800001239A42099318D09C4200F06587022AC4
:104290000A9312D0022C00F05F87032A0B930CD0F4
:1042A000032C00F05987042A0C9306D0052C40F00B
:1042B0005387052A0D9340F04F873B6809A9052BCA
:1042C00001EB8200CCBF7968391D9A0029F0B2F861
:1042D0003268A24200F34287052C0E9440F3A0807E
:1042E0006FF060439C4280F24A87A00026F061FD97
:1042F00032680F90A31A002B01461FDD01218B426B
:1043000001601AD0022B416017D0032B816014D0BA
:10431000042BC16011D0052B01610ED0062B416129
:104320000BD0062C07D0062740F8271001379F42F4
:1043300003D0A742F8D128F093FC0F99052A01EB8E
:1043400083004FEA8202CCBF7168311D29F072F8F8
:10435000089FDDF83880474500F08480631E00F137
:104360001283BB4280F21E83052F099E0F9800F333
:10437000A280B8F1050F14AA00F37C8102EB83013F
:10438000434551F82C2C80F2F68651F8141C8A42D1
:1043900040F0A480012CA4F102013AD08F4240F3F6
:1043A000018314AA02EB8100884550F82C2C40F3BD
:1043B000E28650F8141C8A4240F09080022CA4F14E
:1043C000030126D08F4240F3ED8214AA02EB810054
:1043D000884550F82C2C40F3CE8650F8141C8A42A5
:1043E0007CD1032CA4F1040013D0874240F3DA827D
:1043F00014AA02EB8001804551F82C2C40F3BB86B7
:1044000051F8141C8A4269D118B10F998E42324674
:1044100064D12A78911E012988BF00263BD887E104
:10442000A31A1DD0002C86DD01218B420F9117D0DD
:104430008C4280D0022B109112D0022C3FF47BAF23
:10444000032B11910CD0032C3FF475AF042B129168
:1044500006D0052C7FF46FAF052B13917FF46BAF63
:104460000FA96BE7052FCCBF099809A8B8F1050F74
:10447000CCBF0F990FA9BA0028F0CCFF00287FF419
:104480006DAF012306462B70B8F1050F03DD0F98C1
:1044900008B126F0BDF8052F03DD099808B126F014
:1044A000B7F8052C03DD039808B126F0B1F83046C3
:1044B00015B0BDE8F08FB8F1050F40F38C8006EB26
:1044C000840600EB840E9C46E04556F8042D40F32C
:1044D00052865EF8041D8A4200F05D82012A40F097
:1044E0003A81C5E90F22C5E91122EA6402222A7045
:1044F000394642460DF1200C0DF1380B052A00F328
:104500003D81052900F350828B4280F232860CEB0C
:104510008300934246684FEA830080F2278658441E
:104520004068864240F0EB83012CEE64A4F1020364
:104530004FD08B4280F21D860CEB83009342D0F863
:1045400004E04FEA830080F21186584440688645B3
:1045500040F0D5830EFB06FE022CC5F84CE0A4F11A
:10456000030336D08B4280F204860CEB8300934227
:1045700046684FEA830080F2F985584440688642D5
:1045800040F0BD8306FB0EFE032CC5F84CE0A4F101
:1045900004031ED08B4280F2EC850CEB8300934227
:1045A00040684FEA830680F2E1855E447668B04257
:1045B00040F0A58300FB0EF0052CE86409D1DBF880
:1045C0000430DCF804609E4240F0988306FB00F063
:1045D000E864012658E7434556F823204FEA830054
:1045E00080F2C98500F15001694451F8141C8A42D7
:1045F0007FF474AF012CA4F102013FF40AAF06442A
:10460000884556F8042C40F3B68514A800EB8101C8
:1046100051F8141C8A427FF461AF022CA4F103010B
:104620003FF4F7AE884556F8082C40F3A48500EB1C
:10463000810151F8141C8A427FF450AF032CA4F17D
:1046400004003FF4E6AE804556F80C2C40F3938509
:1046500014A901EB800151F8141C8A427FF43EAF8B
:1046600000283FF4D6AE56F8102C0F998A427FF4FA
:1046700035AFCEE602EB8302434552F82C2C4FEACD
:10468000830680F2788550F823108A427FF426AFA3
:10469000012CA4F1020244D0974240F3838114A973
:1046A00001EB8202064452F82C2C56F8041C8A4274
:1046B0007FF414AF022CA4F1030232D0974240F3EE
:1046C000718114A901EB820256F8081C52F82C2CB7
:1046D0008A427FF403AF032CA4F1040221D0974255
:1046E00040F3608114A901EB820256F80C1C52F8C9
:1046F0002C2C8A427FF4F2AE042CA4F1050C10D0CD
:10470000674540F34F8114AA02EB8C0256F8101C47
:1047100052F82C2C8A427FF4E1AEBCF1000F40F03D
:1047200041812A78911E012988BF00263FF6B0AE4C
:10473000032A00F0EA84424639460DF1200C0DF1BF
:10474000380B0120002BC5E90F00C5E91100E86412
:10475000FFF63FAFD2E6012940F0118103222A7013
:104760003A46052AC5E90F11C5E91111E9640DF1B1
:10477000380C41460DF1200B7FF7C3AE05295FDCF5
:104780008B4280F2F6840CEB8302DBF80460D2F8F3
:10479000049056F8232091454FEA830E40F066813D
:1047A000012CC5F84C90A4F102033FF412AF8B42E8
:1047B000AEF1040280F2DD840CEB8300B258406855
:1047C000904240F0538100FB09F2022CEA64A4F10C
:1047D00003033FF4FEAE8B42AEF1080080F2C984C1
:1047E0000CEB83093058D9F80490814540F03E81A4
:1047F00002FB00F0032CE864A4F104033FF4E9AEEB
:104800008B42AEF10C0280F2B48456F802900CEBAD
:10481000830252684A4540F0298102FB00F3052CCF
:10482000EB647FF4D6AE06EB0E0252F8100CDCF807
:104830000420824240F0198102FB03F3EB64C8E6D6
:104840004FF0010A50464FEA830EBA460194914652
:1048500008E0013B07FB00F05C1CE864AEF1040ECD
:1048600000F044848B4280F28384DCF804204B45C2
:1048700052F80E7080F27984DBF8046056F80E402E
:10488000A742E6D0002B1046019C57464A46FFF649
:10489000A0AE4FEA830CB94696460EE0734580F20F
:1048A0003F8456F80C20AF6C013B07FB02F25F1C03
:1048B000ACF1040CAA6400F030848B4280F23284A4
:1048C00050F80C20012AE9D072468A464FF0010EBA
:1048D0004F4603F10109714600EB8909944683466E
:1048E000D64609E0013B02FB01F15A1C69643FF422
:1048F00070AE734580F21884634559F8042D80F238
:10490000438456F823008242ECD0714603F1010E35
:10491000584606EB8E0EB1460FE08B4280F238848B
:1049200050F823202E6C013B06FB02F22A645A1C2D
:104930003FF44FAE634580F229845EF8042D012ACE
:10494000EBD062464E464FEA830CB946964609E0E4
:10495000EF6B013B07FB02F2EA635A1CACF1040C5B
:1049600000F0DB838B4280F20D84734550F80C20FD
:1049700080F2F98356F80C70BA42E9D04F4604230E
:104980002B70012680E52A78911E012988BF002618
:104990003FF67AADCCE6BCF1010CFFF4C2AEBC45EB
:1049A000FFF692AD28F05CF98B4280F2E283DCF8EE
:1049B0000400934250F823104FEA830680F2D68316
:1049C0000BEB060CDCF804C0614540F0C980012CFB
:1049D000E964A4F102033FF4FCAD00EB060C934242
:1049E0005CF8046C80F2C2830BEB830EDEF804E00B
:1049F000764540F0B58006FB01F1022CE964A4F194
:104A000003033FF4E6AD93425CF8086C80F2AE839A
:104A10000BEB830EDEF804E0764540F0A18006FB48
:104A200001F1032CE964A4F104033FF4D2AD9342F5
:104A30005CF80C6C80F29A830BEB830EDEF804E0DA
:104A4000764540F08D8006FB01F1052CE9647FF48A
:104A5000C0AD5CF8106CDBF804309E427FD106FBE1
:104A600001F1E964B5E509A929E40023581C0CEB20
:104A700080008E4609E056F82310AA6C013B01FB2A
:104A800002F2AA645A1C3FF4A4AD734580F24A8333
:104A900050F80429012AEED0002B7146FFF699AD9B
:104AA0000CEB83024FEA830ED2F8049056F82320D1
:104AB000914540F0C480C5F84490581E002B3FF447
:104AC00088AD884280F230830CEB8002B644D2F885
:104AD00004A0820001925EF8042C924540F0B2805E
:104AE0000AFB09F9012BC5F84490A3F102003FF439
:104AF00070AD884280F218830CEB8002D2F804A0DB
:104B0000820001925EF8082C924540F09B800AFBDF
:104B100009F9022BC5F84490A3F103003FF459AD05
:104B2000884280F201830CEB8002D2F804A082005C
:104B300001925EF80C2C924540F084800AFB09F249
:104B4000042B6A647FF445AD5EF8100CDCF8043089
:104B5000834240F0D58203FB02F26A6439E5002308
:104B600003F1010C0BEB8C0C0CE0934280F2D88229
:104B7000A96C5CF80469013B06FB01F1A964591CAE
:104B80003FF427AD50F82360012EEED0002BFFF646
:104B900020AD93424FEA830C80F2F6820BEB0C01BE
:104BA00049688E4240F01A816E64591E002B3FF412
:104BB00010AD844491425CF804EC80F2E5820BEB8A
:104BC0008109D9F80490CE4540F009810EFB06F624
:104BD000012B6E64A3F102013FF4FBAC91425CF83F
:104BE00008EC80F2D1820BEB8109D9F80490CE4514
:104BF00040F0F5800EFB06F6022B6E64A3F1030174
:104C00003FF4E7AC91425CF80CEC80F2BD820BEB18
:104C10008109D9F80490CE4540F0E1800EFB06F101
:104C2000042B69647FF4D5AC5CF8106CDBF80430BD
:104C30009E4240F0688206FB01F16964C9E41846AF
:104C4000CDF804E0DBF804E05EF82030012B18BF5B
:104C5000024640F0F280884280F29A82019B6344CF
:104C6000421ED3F80490C5F8409000283FF4B1AC40
:104C7000019B9E445EF8043C012B40F0DE808A429A
:104C800080F286820CEB82020128536803FB09F94B
:104C9000C5F84090A0F102023FF49BAC5EF8083CDE
:104CA000012B40F0CA808A4280F272820CEB8202B1
:104CB0000228536803FB09F9C5F84090A0F10302EC
:104CC0003FF487AC5EF80C3C012B40F0B6808A4282
:104CD00080F25E820CEB82020428536803FB09F326
:104CE0002B647FF476AC5EF8102C012A40F0A4808F
:104CF000DCF8042002FB03F32B646AE400239942EE
:104D000040F310820CEB83004668012E4FEA8300CB
:104D100040F0A9809A4240F3038258445E1ED0F8C6
:104D200004E0C5F848E0002B3FF453AC8E4280F21B
:104D3000F9810CEB8600D0F80490B9F1010F4FEA2D
:104D4000860040F09180964280F2EA815844012B1F
:104D5000406800FB0EFEC5F848E0A3F102063FF4F0
:104D600038AC8E4280F2DE810CEB8600D0F80490E5
:104D7000B9F1010F4FEA860076D1964280F2D081D8
:104D80005844022B406800FB0EFEC5F848E0A3F132
:104D900003063FF41EAC8E4280F2C4810CEB860009
:104DA000D0F80490B9F1010F4FEA86005CD1964229
:104DB00080F2B6815844042B406800FB0EF0A864D2
:104DC0007FF407ACDCF80430012B40F09681DBF86F
:104DD000043003FB00F0A864FFF7FBBB19464E1C30
:104DE0000BEB860694460CE050F821202B6C013921
:104DF00002FB03F32B644B1C3FF4EBAB614580F2E9
:104E0000C58156F80439012BEED04B1C62460BEBE2
:104E1000830B07E0EB6B013906FB03F34E1CEB63DE
:104E20003FF4D7AB914250F8213080F29C815BF87F
:104E300004699E42EED0A2E50022531C0CEB830CC9
:104E400007E0EB6B013A00FB03F3501CEB633FF40C
:104E5000C0AB8A4280F296815CF8043956F8220091
:104E60009842EED08BE51E460CEB000396425B6841
:104E700080F28A815844D0F8049099455CD1C5F8F5
:104E80004490701E002E3FF4A4AB884280F24C8107
:104E90000CEB80039042D3F804A04FEA800E80F21E
:104EA00073810BEB0E035B68534548D103FB09F399
:104EB000012E6B64A6F102003FF48BAB884280F2B6
:104EC00033810CEB800E9042DEF804904FEA800EA6
:104ED00080F25A810BEB0E0ADAF804A0CA452ED1F3
:104EE00009FB03F9022EC5F84490A6F103003FF434
:104EF00070AB884280F218810CEB80039042D3F8AB
:104F000004A04FEA800E80F23F810BEB0E035B683A
:104F1000534514D109FB03F0042E68647FF459ABA8
:104F2000DCF80430DBF804609E4240F0E38006FBCE
:104F300000F06864FFF74DBB30464FEA860E0BEB7E
:104F40000E035B68012B18BF034663D1884280F2D1
:104F50001F81E644431EDEF804E0C5F840E0002867
:104F60003FF437AB934280F211810BEB8306D6F806
:104F70000490B9F1010F4FEA83064BD18B4280F2C6
:104F800007810CEB060301285E6806FB0EF62E6413
:104F9000A0F102033FF41DAB934280F2F7800BEBCC
:104FA000830EDEF80490B9F1010F4FEA830E31D180
:104FB0008B4280F2ED800CEB0E0302285B6803FB52
:104FC00006F62E64A0F103033FF403AB934280F294
:104FD000DD800BEB830EDEF80490B9F1010F4FEA90
:104FE000830E17D18B4280F2D3800CEB0E03042882
:104FF0005B6803FB06F62E647FF4EBAADBF8043053
:10500000012B06D1DCF8043003FB06F62E64FFF713
:10501000E0BA00238B4280F2B5800CEB8300934210
:1050200046684FEA830080F29E805844D0F804E03E
:10503000B6457FF4A4ACC5F83CE0581E002B3FF405
:10504000C8AA884280F29E800CEB80069042D6F877
:1050500004904FEA800680F286800BEB06004068E1
:1050600081457FF48CAC09FB0EFE012BC5F83CE0BA
:10507000A3F102003FF4ADAA884280F283800CEBDA
:1050800080069042D6F804904FEA80066BDA0BEB6C
:105090000600406848457FF472AC0EFB09F6022B0F
:1050A000EE63A3F103003FF494AA88426ADA0CEBA2
:1050B000800390425B684FEA800154DA0BEB0102F7
:1050C000526893427FF45BAC06FB03F3EB6300286A
:1050D0003FF47FAADBF80410DCF804208A427FF456
:1050E0004EAC02FB03F3EB63FFF773BA019C574628
:1050F000FFF76FBA0020864621E700263046B3E668
:10510000002001909EE5002169E63A4641460DF1F6
:10511000380C0DF1200BFFF714BB4F46FFF759BABF
:1051200027F09EFD27F09CFD27F09AFDB8F1050FB2
:1051300003DD0F9808B125F06BFA089B052B03DD02
:10514000099808B125F064FA052C03DD039808B12D
:1051500025F05EFA25F05EFA27F082FD27F080FD4B
:10516000F2E727F07DFD27F07BFD019C27F078FD1D
:10517000019C27F075FD27F073FD25F006FB25F057
:1051800004FBDAE727F06CFD27F06AFD27F068FDE5
:1051900027F066FDDAE725F0F8FA00BF004870470F
:1051A00004000020F0B58DB0002A00F0BB811C4641
:1051B000002B00F0B78115460268042A00F3B28183
:1051C000042300939B1A0E460DD001218B420191BE
:1051D00009D0022B029106D0032B039103D0042B9C
:1051E000049140F09F81011D01A8920000EB830013
:1051F00028F020F93268042A00F3AC810423981ABD
:1052000006930DD001239842079309D002280893F2
:1052100006D00328099303D004280A9340F098810C
:1052200007AB311D920003EB800028F003F9DDE9A4
:105230000076052F6BDDF268B368EA60AB60AA61A7
:1052400002FB03F372686A606B6103FB02F233686E
:105250002B600123EB61DDE90630052B2A616DDC53
:10526000032B40F363810A9B0999DDF820C020607D
:1052700001FB03F262610CFB02F22261052F4FF089
:105280000102E360A361A160C4F804C0E26100F31D
:10529000E180002F40F36181864208D0012E00F0AA
:1052A0003581012840F05B81002226602261012FB8
:1052B00000F05381029A944509D0012A00F01C8124
:1052C000BCF1010F40F04B81626000226261022F4D
:1052D00000F04381039A914208D0012A00F0FA803D
:1052E000012940F03C81A2600022A261032F00F05E
:1052F0003481049A934208D0012A00F0F480012BF3
:1053000040F02D810023E361E2600DB0F0BD032F7A
:1053100040F30A81049B039AEB60AB61AA6002FB35
:1053200003F3029A6B6102FB03F32B610123EB6130
:10533000DDE90630052B2E606A6091DDC368816867
:10534000D0F804C0D0F800E0E36001FB03F2626132
:105350000CFB02F22261052F4FF00102A160A36154
:10536000C4F804C0C4F800E0E26147DC002F40F359
:10537000F480B64509D0012E00F0B080BEF1010FD7
:1053800040F0ED80002226602261012F00F0E580D0
:10539000029A624509D0012A00F09380BCF1010F06
:1053A00040F0DD80626000226261022F00F0D58053
:1053B000039A8A4208D0012A00F0AC80012940F00B
:1053C000CE80A2600022A261032F00F0C680049A62
:1053D0009A4207D0012A39D0012B40F0C080002327
:1053E000E260E36125F014F9052F8EDD002E8CD0EC
:1053F00030460DB0BDE8F04025F00AB9326872457C
:1054000008D0012A7DD0BEF1010F40F0A8802260B3
:10541000002222617268624508D0012A67D0BCF17F
:10542000010F40F09C80626000226261B2688A4293
:1054300007D0012A4AD0012940F09180A2600022C1
:10544000A261F2689A42CDD0012AC5D1EB60002357
:10545000EB61C7E73268824206D0012A5ED001289C
:105460007DD12260002222617268944507D0012A12
:105470001ED0BCF1010F72D1626000226261B2687D
:105480008A4206D0012A18D0012968D1A2600022E0
:10549000A261F2689342A9D0012A05D0012B5ED106
:1054A0000023E361E260A1E70022EA61EB609DE78F
:1054B0000022C5F804C06A61E1E70022A960AA6180
:1054C000E7E70022C5F804C06A616EE70022A96020
:1054D000AA61B6E70022A960AA6107E70022C5F821
:1054E00000E02A6151E70022EA61EB600DE700224B
:1054F000C5F804C06A6199E70022C5F804C06A6172
:10550000E5E60022C5F800E02A6183E70022286072
:105510002A61CCE60022A960AA6155E70022286032
:105520002A61A1E727F09CFB27F09AFB27F098FB64
:10553000069B052B03DD079808B125F069F8009B51
:10554000052B03DD019808B125F062F825F062F81B
:1055500027F086FB27F084FBF1E727F081FB27F09B
:105560007FFB00BF2DE9F04F2DED028BC7B0127805
:105570005299029153990391012A549904914AD066
:10558000032A2BD09FED967ADFED967A022AF7EE6A
:10559000008ABFEE008A18BFF0EE478A18BFB0EE4F
:1055A000678A1B780BB3029B002B39D09C6854F898
:1055B000042B1E92052A40F384826FF060439A42C6
:1055C00080F2AA8392001046019225F0F2FB1E9B06
:1055D0001F90052B019AD8BF1FA874E21B789FED7E
:1055E000828AF1EE088A002BDDD1029B8BB39C6886
:1055F00054F8042B3092052A40F359826FF060432F
:105600009A4280F2898392001046019225F0D1FBE4
:10561000019A31904DE2DFED728A9FED738AC0E707
:105620001E93039B63B39D6855F8044B2494052C8B
:1056300040F333826FF060439C4280F27083A40099
:10564000204625F0B6FB249B2590052BD8BF25A826
:1056500025E230931C46039B002B3BD09E6856F8F6
:10566000045B3695052D40F30D826FF060439D423B
:1056700080F25883AD00284625F09BFB379003E26B
:105680002493049900293DD08D6855F8044B2A9441
:10569000052C00F3EC81A4002BA82246294627F014
:1056A000C9FE04992A9C496804913EAB36AA24A9F4
:1056B0001EA8FFF777FD042C00F339830423181B81
:1056C000309334D001239842319330D00228329362
:1056D00025D12CE036931D46049B002B00F047811A
:1056E0009F6857F8046B3E96052E40F3B5816FF026
:1056F00060439E4280F2BE82B600304625F059FBE0
:105700003F90ABE12A913EAB36AA24A91EA8FFF731
:1057100049FD01230420CDE9300332930024012305
:105720000328339303D00428349340F0EC8231AB48
:10573000A20003EB80002BA927F07CFEDDF8C080DF
:10574000B8F1000F40F3E682329B0793369B089333
:10575000379B0993389B0A93399B0B933A9B1A9377
:105760003B9B13933C9B05933E9B0C933F9B0D935C
:10577000409B0E93419B3D990F93429B1B93439BF0
:1057800031981493DDE933790129449B0693459AB6
:1057900040F0A681531E18BF0123002B40F0A081CA
:1057A000079A1893194607FB02F309FB03F21992B3
:1057B000B8F1050F07FB09F2CDE9161115920E4657
:1057C00040F3B88003689E4280F2BC80189B10931F
:1057D000169B1193179B12934FF0000C17E000BF1C
:1057E000FFFF7F7FFFFF7FFF0000000082689A427B
:1057F00021DC129B159A13441293149A119B1344A3
:105800001193139A109B13440CF1010C1093B8F1EF
:10581000050F75DD436863457ADDDDE910541299A3
:105820000023AB46B8F1050FE0DC9F42E1DDB8F1A3
:10583000030F00F06D82049A02EB81020192039A39
:1058400002EB840E029AB8F1050F02EB8B0A4FF0BF
:1058500000024CDDC56895424BDD089DB54240F322
:105860003382099D654540F331820A9D9D4240F394
:1058700033820B9D954240F32B820C9DBAEC017A4A
:10588000AE4280F227820D9D654540F31B820E9D3E
:105890009D4240F3F1810F9D954240F3EF81FEEC74
:1058A000017AB8F1040F77EE877A40F0E981B042CF
:1058B00040F3FF81079D654540F3FD819F4240F322
:1058C000FD81914540F3FC81F4EE487AF1EE10FA47
:1058D00048BFF0EE487AF4EE687A019DF1EE10FAD6
:1058E000C8BFF0EE687AE5EC017A01950132914586
:1058F000B3DC069A1444059A01334944934491E772
:10590000079B634504DDB8F1020F86D127F0A8F9A3
:10591000179B199A134417931B9A169B13441693BB
:105920001A9A189BB8F1050F134406F10106189353
:105930003FF748AFB04207DDB8F1010F7FF446AF43
:1059400027F08EF924F064FE249B052B03DD2598B7
:1059500008B124F05DFE1E9B052B03DD1F9808B1E6
:1059600024F056FE47B0BDEC028BBDE8F08F3E93AD
:105970001E46052C6CDD319A043A0123002152F8B1
:10598000040F01318C4200FB03F3F8DC052D5BDDD5
:10599000379A043A0121002052F8047F0130A842CE
:1059A00007FB01F1F8DB052E4ADD3F9A043A01209E
:1059B000002752F804CF0137B7420CFB00F0F8DBA8
:1059C0008B4240F08B81984240F09F8100281ADD85
:1059D000DDE90231049A03EB8000B3EC017AF1ECCB
:1059E000017A77EE877AB4EE678AF1EE10FAC8BFD3
:1059F000F0EE487AF4EEE87AF1EE10FA1BDC83421E
:105A0000E2EC017AE9D1052E03DD3F9808B124F0DC
:105A1000FFFD052D03DD379808B124F0F9FD052CB5
:105A2000A0DD319800289DD047B0BDEC028BBDE8C9
:105A3000F04F24F0EDBD8342E2EC018ACDD1E2E7E4
:105A4000002E47DD3FAAB1E7002D47DD37AAA0E7CA
:105A5000002C41DD31AA8FE7B6003FA83246394617
:105A600027F0E8FC049B3E9E5B68049381E76FF09F
:105A700060439C4280F25981A400204625F099F9A8
:105A80002B900AE6AD0037A82A46314627F0D2FC13
:105A9000039B369D5B6803931EE6A40025A822465F
:105AA000294627F0C7FC039B5B680393E9E5920056
:105AB00031A8214627F0BEFC029B309C5B68029314
:105AC000C9E592001FA8214627F0B4FC029B5B6841
:105AD0000293A6E5012073E7012357E7012162E75E
:105AE000930010938B001193079B07FB03F309FBB3
:105AF00003F300221D93B8F1050F09FB07F3CDE96D
:105B0000172219921C9311463C4640F3AB80036860
:105B10008B427FF717AF199B1693189B1593179B12
:105B20001293002710E08368934223DC129B1C9A97
:105B3000019C13441293DDE9142313441593139A23
:105B4000169B134401371693B8F1050F71DD4368B6
:105B5000BB4275DDDDE915EADDF848C0019400229D
:105B6000B8F1050FDFDC019B9342DFDDB8F1030FD5
:105B700000F0CE80049B03EB8C0B039B03EB8E06A3
:105B8000029BB8F1050F03EB8A054FF0000347DDD8
:105B9000C4689C4246DD089C8C4240F39580099C79
:105BA000BC4240F393800A9C944240F395800B9C46
:105BB0009C4240F38D800C9CD5ED007A8C4240F3E2
:105BC00089800D9CBC427DDD0E9C944254DD0F9C6F
:105BD0009C4253DD96ED007AB8F1040F77EE877A98
:105BE0004ED1884265DD079CBC4264DD019C944235
:105BF00064DD994564DDF4EE487AF1EE10FA48BFB1
:105C0000F0EE487A109CF4EE687AF1EE10FA264431
:105C1000119CC8BFF0EE687AEBEC017A01332544A1
:105C20009945B8DC069B9E44059B0132CC449A44BE
:105C300096E7079BBB4203DDB8F1020F8AD165E608
:105C4000179B1D9A134417931B9A189B1344189380
:105C5000DDE91932B8F1050F134401F1010119937F
:105C60003FF755AF88427FF76FAEB8F1010F7FF471
:105C700052AF65E624F089FD26F0F2FF26F0F0FF32
:105C800026F0EEFFB8F1050F03DD319808B124F0DE
:105C9000BFFC249B052B03DD259808B124F0B8FC3C
:105CA0001E9B052B03DD1F9808B124F0B1FC24F0E6
:105CB000B1FC26F0D5FF26F0D3FFEAE726F0D0FFAF
:105CC00026F0CEFF26F0CCFF26F0CAFF26F0C8FF54
:105CD00026F0C6FF26F0C4FF26F0C2FF26F0C0FF64
:105CE000D7E7052E03DD3F9808B124F091FC052D80
:105CF00003DD379808B124F08BFC052CD7DD3198F3
:105D00000028D2D1D3E726F0ABFF26F0A9FFC0E7E9
:105D100026F0A6FF26F0A4FF24F037FDC0E724F00C
:105D200034FDEAE724F031FDB3E724F02EFD26F040
:105D300097FF052CADDD2B980028A8D1A9E7D6E761
:105D40002DE9F04FB9B00D46439C1592194628AA8B
:105D5000804630AB2846FFF725FA2268042A00F374
:105D6000A6810423981A22930DD0012398422393ED
:105D700009D00228249306D00328259303D00428B1
:105D8000269340F0948123AB03EB80009200211D09
:105D900027F050FB229B0493002B40F38881249A28
:105DA0000692259A0592269A0392289A0792299A92
:105DB00008922A9A09922B9A0A922C9A1E922D9A4C
:105DC00018922E9A1392309A0B92319A239B0C922E
:105DD000329A0F930D922F9B339A01930E92349A1D
:105DE0001F92359A1992369A1492012B379A029281
:105DF00040F02A82561E18BF0126002E40F0248251
:105E0000429B1C93159B1D93DDE90523039902FB1F
:105E100003F301FB03F32093449B1B93474601FBD1
:105E200002F3DDF83C801A93B646049B052B40F341
:105E3000ED81D8F800309E4580F266831D9B179354
:105E40001C9B16931B9B1593049B052B4FF0000C7A
:105E500040F3D481D8F804309C4580F2DE81169B53
:105E6000013B1193179B013B1293159B1093049BCD
:105E7000052B4FF000054FF0010640F31081D8F8D4
:105E800008309D4280F2A881109B013B0293129B37
:105E90000193119B0093049B052B4FF0000440F3EA
:105EA000E880D8F80C309C4280F2E780079A7B6843
:105EB000724540F3F883089A624540F3F283099AE9
:105EC000AA4240F3EC830A9AA24240F3E683019A85
:105ED000D7F8089012F901AF01920B9A724553441A
:105EE00040F3D9830C9A944580F2D3830D9AAA4249
:105EF00040F3CD830E9AA24240F3C7830099B8695C
:105F000011F9012F009109EB020183408140D7E98B
:105F10000709984200F0CD8080FB03A3002BC0F25C
:105F200033814FF080424FF0000B1AEB020243EB3B
:105F30000B0BBBF1000F04DA6FF00043D2184BF1EA
:105F4000000BD20F42EA4B03B9F1000FC9F1000276
:105F500000F3C78019F11F0FC0F2858306FA02FB18
:105F60000BF1FF3B4FEA6B0000EBD37043FA02F2F8
:105F70000BEA03039842B8BF0132D7E90909884206
:105F800000F0B68081FB00A00028C0F20F814FF026
:105F900080434FF0000B13EB0A034BEB000BBBF1FC
:105FA000000F04DA6FF000415B184BF1000BDB0FC0
:105FB00043EA4B00B9F1000FC9F1000300F3B080D0
:105FC00019F11F0FC0F2488306FA03FB0BF1FF3BE8
:105FD0004FEA6B0101EBD07140FA03F300EA0B00CA
:105FE0008142B8BF0133D7E904101A448A4200F055
:105FF0009E8082FB01910029C0F2EA8019F180495C
:1060000041F100014FEAD97949EA41010028C0F184
:10601000000200F3B2801F30C0F2178306FA02F3C9
:10602000013B4FEA630A41FA02F20B400AEBD171DD
:106030008B42C8BF0132FB681A44FB6A9A42B8BF60
:106040001A463B6B9342A8BF1346049A042A40F0B9
:106050001A83F0452BDD069A624528DD059AAA428F
:1060600025DD039AA24222DD029A02F8013F0134A3
:106070000292039BA3423FF719AF109B039A13446C
:106080001093149A119B13441193DDE912321344B7
:106090001293049B052B05F101053FF7F0AE059B1C
:1060A000AB4240F39980049B032B7FF4EDAE26F0C6
:1060B000D7FD80FB00A3002B5F4AA6BF4FF0000B6B
:1060C0004FF080424FF0FF3BB0F1004F08BF6FF040
:1060D00000437FF42AAFB9F1000FC9F100027FF746
:1060E00039AF564B564A57484FF4B37126F0C0FDAE
:1060F00081FB01A00028504BA6BF4FF0000B4FF0D2
:1061000080434FF0FF3BB1F1004F08BF6FF00040FC
:106110007FF441AFB9F1000FC9F100037FF750AF31
:10612000464B474A47484FF4B37126F0A1FD82FB26
:1061300002910029404BA6BF4FF0000A4FF0804368
:106140004FF0FF3AB2F1004F08BF6FF000413FF44B
:106150005DAF19EB030341EB0A0ABAF1000F04DA51
:106160006FF000429B184AF1000ADB0F002843EA57
:106170004A01C0F100027FF74EAF304B304A314840
:106180004FF4B37126F074FD2B4A1AEB020A63F147
:106190000002002A05DA6FF000431AEB030A42F10D
:1061A00000024FEADA7A4AEA4203CDE6224B1AEBC2
:1061B000030A60F10003002B05DA6FF000411AEBCF
:1061C000010A43F100034FEADA7A4AEA4300F1E6B2
:1061D000194B4FF0FF3ABCE7159B1A9A13441593DD
:1061E000199A169B13441693DDE91732134417933B
:1061F000049B052B0CF1010C3FF72CAE069B63456D
:106200000BDD049B022B7FF42AAE50E7F04540F3F0
:106210007E81012B7FF412AE49E71B9B209A134429
:106220001B931F9A1C9B13441C93DDE91D321344DE
:106230000EF1010E1D93F8E5010000C084E6020096
:1062400094E60200F0E60200DDE90513039801FB85
:1062500003F300FB03F32193449B1B9300FB01F327
:106260000022209343461D921C9290469E46049B1A
:10627000052B0F9B00F34481984580F24881049BD5
:10628000012B3FF414AF1D9B1A931C9B17931B9B70
:106290001693049B052B4FF0000C40F3BF810F9B1E
:1062A0005B68634540F3C2811A9B1293179B11935D
:1062B000169B1093049B052B4FF0000540F31781AC
:1062C0000F9B9B689D4280F29781109B119A013B26
:1062D0000093429B9E18159B129A9F18049B052BB6
:1062E0004FF0000440F3ED800F9BDB689C4280F28E
:1062F000EC80079ADEF80430904580F2D481089A49
:10630000624540F3CE81099A954280F2C8810A9A8B
:10631000944280F2C2810B9A97F900A0DEF808102F
:106320009045534480F2B7810C9A624540F3B181A5
:106330000D9A954280F2AB810E9A944280F2A5812B
:1063400096F90020DEF81800114483408140DEE910
:106350000709984200F0F18083FB00A3002BC0F2F4
:1063600023814FF080424FF0000B1AEB020243EB07
:106370000B0BBBF1000F04DA6FF00043D2184BF1A6
:10638000000BD20F42EA4B03B9F1000FC9F1000232
:106390003FF7A7AE19F11F0FC0F2658101209040B1
:1063A00001384FEA600943FA02F2184009EBD3734F
:1063B0009842C8BF0132DEE90909884200F0AA808C
:1063C00081FB00A00028C0F205814FF080434FF010
:1063D000000B1AEB030340EB0B0BBBF1000F04DACD
:1063E0006FF000415B184BF1000BDB0F43EA4B00F1
:1063F000B9F1000FC9F100013FF792AE19F11F0F7B
:10640000C0F22A8101238B40013B40FA01F9591067
:10641000034001EBD0708342C8BF09F10109DEE9F6
:1064200004109144494500F09B8081FB0992002AA9
:10643000C0F2CC8019F1804942F100024FEAD979CB
:1064400049EA42090028C0F100023FF796AE1F302A
:10645000C0F2FB8001239340013B591049FA02F23C
:1064600003EA090301EBD9794B45C8BF0132DEF8D5
:106470000C301A44DEF82C309A42B8BF1A46DEF8C7
:1064800030309342A8BF1346049A042A40F0FB80A0
:106490000F9A9045BFF60BAE069A62457FF707AE9E
:1064A000059A9542BFF603AE029A1644019A174424
:1064B000039A9442BFF6FBAD009A02F8013F013403
:1064C0000092039B9C42FFF614AF109B039A134467
:1064D0001093149A119B13441193DDE91232134463
:1064E0001293049B052B05F101053FF7E9AE059BCF
:1064F0009D4280F28180049B032B7FF4E6AED6E5BB
:106500001B689845FFF6BFAE0F9824F081F839B0AC
:10651000BDE8F08F81FB01A00028644BA6BF4FF0BF
:10652000000B4FF080434FF0FF3BB1F1004F08BF2D
:106530006FF000403FF45CAF4BE780FB00A3002B03
:106540005A4AA6BF4FF0000B4FF080424FF0FF3B7E
:10655000B0F1004F08BF6FF000433FF415AF04E700
:1065600081FB0192002A514BA6BF4FF0000A4FF069
:1065700080434FF0FF3AB1F1004F08BF6FF0004980
:106580003FF460AF19EB030942EB0A0ABAF1000FBE
:1065900005DA6FF0004319EB03094AF1000A4FEAEC
:1065A000D97949EA4A094DE7404A1AEB020A63F1F0
:1065B0000003002B05DA6FF000421AEB020A43F1E8
:1065C00000034FEADA7A4AEA4303DDE6374B4FF03D
:1065D000FF3AD7E7354B1AEB030A60F100000028B9
:1065E00005DA6FF000431AEB030A40F100004FEAAE
:1065F000DA7A4AEA4000FBE6169B209A1344169387
:10660000199A179B13441793189A1A9B13441A93B9
:10661000049B052B0CF1010C3FF741AE069B634533
:1066200004DD049B022B7FF43FAE40E51B9B219AC7
:1066300013441B931F9A1C9B13441C93DDE91D32CA
:10664000134408F101081D9311E6194B194A1A4821
:1066500040F2671126F00CFB154B164A164840F223
:10666000671126F005FB124B124A134840F26711DE
:1066700026F0FEFA049B052B03DD239808B123F0D6
:10668000C7FF23F0C7FF26F0EBFA26F0E9FA26F061
:10669000E7FA26F0E5FA26F0E3FA26F0E1FA26F02A
:1066A000DFFA26F0DDFA26F0DBFA00BF010000C0B9
:1066B0003CE7020094E60200F0E602002DE9F04F0C
:1066C000B9B00D46439C1592194628AA804630ABB6
:1066D0002846FEF767FD2268042A00F3A6810423FA
:1066E000981A22930DD001239842239309D00228AF
:1066F000249306D00328259303D00428269340F042
:10670000948123AB03EB80009200211D26F092FEC2
:10671000229B0493002B40F38881249A0692259AA9
:106720000592269A0392289A0792299A08922A9A01
:1067300009922B9A0A922C9A1E922D9A18922E9AAE
:106740001392309A0B92319A239B0C92329A0F93A8
:106750000D922F9B339A01930E92349A1F92359A81
:106760001992369A1492012B379A029240F02A829B
:10677000561E18BF0126002E40F02482429B1C9317
:10678000159B1D93DDE90523039902FB03F301FB30
:1067900003F32093449B1B93474601FB02F3DDF870
:1067A0003C801A93B646049B052B40F3ED81D8F844
:1067B00000309E4580F265831D9B17931C9B1693AA
:1067C0001B9B1593049B052B4FF0000C40F3D481C9
:1067D000D8F804309C4580F2DE81169B013B119372
:1067E000179B013B1293159B1093049B052B4FF0B5
:1067F00000054FF0010640F31081D8F808309D42A3
:1068000080F2A881109B013B0293129B0193119B84
:106810000093049B052B4FF0000440F3E880D8F868
:106820000C309C4280F2E780079A7B68724540F307
:10683000F783089A624540F3F183099AAA4240F32C
:10684000EB830A9AA24240F3E583019AD7F80890B5
:1068500012F801AF01920B9A7245534440F3D8836A
:106860000C9A944580F2D2830D9AAA4240F3CC83CD
:106870000E9AA24240F3C6830099B86911F8012F1D
:10688000009109EB020183408140D7E90709984252
:1068900000F0CD8080FB03A3002BC0F233814FF0CA
:1068A00080424FF0000B1AEB020243EB0B0BBBF1E3
:1068B000000F04DA6FF00043D2184BF1000BD20F37
:1068C00042EA4B03B9F1000FC9F1000200F3C7809F
:1068D00019F11F0FC0F2848306FA02FB0BF1FF3B94
:1068E0004FEA6B0000EBD37043FA02F20BEA0303AA
:1068F0009842B8BF0132D7E90909884200F0B68052
:1069000081FB00A00028C0F20F814FF080434FF0C0
:10691000000B13EB0A034BEB000BBBF1000F04DA87
:106920006FF000415B184BF1000BDB0F43EA4B00AB
:10693000B9F1000FC9F1000300F3B08019F11F0F86
:10694000C0F2478306FA03FB0BF1FF3B4FEA6B01F2
:1069500001EBD07140FA03F300EA0B008142B8BFAB
:106960000133D7E904101A448A4200F09E8082FB6A
:1069700001910029C0F2EA8019F1804941F100013A
:106980004FEAD97949EA41010028C0F1000200F339
:10699000B2801F30C0F2168306FA02F3013B4FEAC1
:1069A000630A41FA02F20B400AEBD1718B42C8BF75
:1069B0000132FB681A44FB6A9A42B8BF1A463B6B25
:1069C0009342A8BF1346049A042A40F01983F04565
:1069D0002BDD069A624528DD059AAA4225DD039A39
:1069E000A24222DD029A02F8013F01340292039B87
:1069F000A3423FF719AF109B039A13441093149AC4
:106A0000119B13441193DDE9123213441293049B3A
:106A1000052B05F101053FF7F0AE059BAB4240F3B6
:106A20009980049B032B7FF4EDAE26F019F980FBCF
:106A300000A3002B5F4AA6BF4FF0000B4FF080422F
:106A40004FF0FF3BB0F1004F08BF6FF000437FF401
:106A50002AAFB9F1000FC9F100027FF739AF564BE9
:106A6000564A57484FF4B37126F002F981FB01A052
:106A70000028504BA6BF4FF0000B4FF080434FF063
:106A8000FF3BB1F1004F08BF6FF000407FF441AF12
:106A9000B9F1000FC9F100037FF750AF464B474AE9
:106AA00047484FF4B37126F0E3F882FB02910029C6
:106AB000404BA6BF4FF0000A4FF080434FF0FF3A23
:106AC000B2F1004F08BF6FF000413FF45DAF19EB2A
:106AD000030341EB0A0ABAF1000F04DA6FF0004237
:106AE0009B184AF1000ADB0F002843EA4A01C0F173
:106AF00000027FF74EAF304B304A31484FF4B3714C
:106B000026F0B6F82B4A1AEB020A63F10002002ABB
:106B100005DA6FF000431AEB030A42F100024FEA74
:106B2000DA7A4AEA4203CDE6224B1AEB030A60F115
:106B30000003002B05DA6FF000411AEB010A43F164
:106B400000034FEADA7A4AEA4300F1E6194B4FF0C4
:106B5000FF3ABCE7159B1A9A13441593199A169B92
:106B600013441693DDE9173213441793049B052B46
:106B70000CF1010C3FF72CAE069B63450BDD049B2B
:106B8000022B7FF42AAE50E7F04540F37D81012BC4
:106B90007FF412AE49E71B9B209A13441B931F9A64
:106BA0001C9B13441C93DDE91D3213440EF1010EAE
:106BB0001D93F8E5010000C084E6020094E602009F
:106BC000F0E60200DDE90513039801FB03F300FB87
:106BD00003F32193449B1B9300FB01F300222093BA
:106BE00043461D921C9290469E46049B052B0F9B8C
:106BF00000F34381984580F24781049B012B3FF4C9
:106C000014AF1D9B1A931C9B17931B9B1693049BFD
:106C1000052B4FF0000C40F3BE810F9B5B68634572
:106C200040F3C1811A9B1293179B1193169B1093EB
:106C3000049B052B4FF0000540F316810F9B9B68CA
:106C40009D4280F29681109B119A013B0093429BDA
:106C50009E18159B129A9F18049B052B4FF0000459
:106C600040F3EC800F9BDB689C4280F2EB80079A3C
:106C7000DEF80430904580F2D381089A624540F3F3
:106C8000CD81099A954280F2C7810A9A944280F296
:106C9000C1810B9A97F800A0DEF808109045534484
:106CA00080F2B6810C9A624540F3B0810D9A95420C
:106CB00080F2AA810E9A944280F2A4813278DEF8A2
:106CC0001800114483408140DEE90709984200F032
:106CD000F18083FB00A3002BC0F223814FF08042A0
:106CE0004FF0000B1AEB020243EB0B0BBBF1000F52
:106CF00004DA6FF00043D2184BF1000BD20F42EAD6
:106D00004B03B9F1000FC9F100023FF7A8AE19F12A
:106D10001F0FC0F265810120904001384FEA6009E1
:106D200043FA02F2184009EBD3739842C8BF01320C
:106D3000DEE90909884200F0AA8081FB00A0002852
:106D4000C0F205814FF080434FF0000B1AEB0303B4
:106D500040EB0B0BBBF1000F04DA6FF000415B1846
:106D60004BF1000BDB0F43EA4B00B9F1000FC9F107
:106D700000013FF793AE19F11F0FC0F22A810123E2
:106D80008B40013B40FA01F95910034001EBD070F0
:106D90008342C8BF09F10109DEE904109144494565
:106DA00000F09B8081FB0992002AC0F2CC8019F18F
:106DB000804942F100024FEAD97949EA42090028A4
:106DC000C0F100023FF797AE1F30C0F2FB800123F5
:106DD0009340013B591049FA02F203EA090301EB1F
:106DE000D9794B45C8BF0132DEF80C301A44DEF8C1
:106DF0002C309A42B8BF1A46DEF830309342A8BF12
:106E00001346049A042A40F0FB800F9A9045BFF67F
:106E10000CAE069A62457FF708AE059A9542BFF61A
:106E200004AE029A1644019A1744039A9442BFF69C
:106E3000FCAD009A02F8013F01340092039B9C4292
:106E4000FFF615AF109B039A13441093149A119BED
:106E500013441193DDE9123213441293049B052B62
:106E600005F101053FF7EAAE059B9D4280F2818066
:106E7000049B032B7FF4E7AED7E51B689845FFF62C
:106E8000C0AE0F9823F0C4FB39B0BDE8F08F81FB92
:106E900001A00028634BA6BF4FF0000B4FF08043CA
:106EA0004FF0FF3BB1F1004F08BF6FF000403FF4DF
:106EB0005CAF4BE780FB00A3002B5A4AA6BF4FF004
:106EC000000B4FF080424FF0FF3BB0F1004F08BF86
:106ED0006FF000433FF415AF04E781FB0192002AF5
:106EE000504BA6BF4FF0000A4FF080434FF0FF3ADF
:106EF000B1F1004F08BF6FF000493FF460AF19EBEC
:106F0000030942EB0A0ABAF1000F05DA6FF00043F9
:106F100019EB03094AF1000A4FEAD97949EA4A090B
:106F20004DE7404A1AEB020A63F10003002B05DA31
:106F30006FF000421AEB020A43F100034FEADA7ADB
:106F40004AEA4303DDE6374B4FF0FF3AD7E7354BCC
:106F50001AEB030A60F10000002805DA6FF0004325
:106F60001AEB030A40F100004FEADA7A4AEA4000DD
:106F7000FBE6169B209A13441693199A179B134409
:106F80001793189A1A9B13441A93049B052B0CF120
:106F9000010C3FF742AE069B634504DD049B022BC8
:106FA0007FF440AE41E51B9B219A13441B931F9A2B
:106FB0001C9B13441C93DDE91D32134408F10108A6
:106FC0001D9312E6184B194A194840F2671125F033
:106FD0004FFE154B154A164840F2671125F048FE42
:106FE000114B124A124840F2671125F041FE049BF2
:106FF000052B03DD239808B123F00AFB23F00AFBDD
:1070000025F02EFE25F02CFE25F02AFE25F028FE88
:1070100025F026FE25F024FE25F022FE25F020FE98
:1070200025F01EFE010000C03CE7020094E60200CD
:10703000F0E602002DE9F04FD1B0DDE95A67DDF846
:10704000708198F80020032A05D0092A03D0002077
:1070500051B0BDE8F08F5A6844929A684692DA6857
:1070600047921A6948925A6943929A694592DA6935
:1070700040921A6A41925A6A4292DA6A3E921A6BB6
:107080009B6A3F923D937EB3B46854F8042B3092D0
:10709000052A40F399806FF060439A4280F2FC84A5
:1070A000920010460C9223F084FE309B3190052B09
:1070B0000C9AD8BF31A8214626F0BCF9BFB1BD68F3
:1070C00055F8044B3694052C77DD6FF060439C42F5
:1070D00080F2B884A400204623F06BFE369B3790E4
:1070E000052BD8BF37A86AE03096002FE7D1369736
:1070F0003CAA36A930A8FDF751F8369B052B04466B
:1071000003DD379808B123F083FA309B052B03DDAC
:10711000319808B123F07CFA98F80030092B59D047
:10712000D4B1002E00F0F680B46854F8042B2492F9
:10713000052A40F3FE826FF060439A4280F2AC84ED
:10714000920010460C9223F034FE249B2590052BD0
:107150000C9AD8BF25A8EEE2002E00F0F380B468A8
:1071600054F8042B2A92052A40F3EA826FF0604318
:107170009A4280F29184920010460C9223F019FEFC
:107180000C9A2B90214626F055F976682A9C002F00
:1071900000F01B81D7F8089059F8045B3095052D55
:1071A00040F3B6826FF060439D4280F24E84AD00A2
:1071B000284623F0FEFD3190ACE2A40037A8224619
:1071C000294626F037F993E7920031A8214626F0A8
:1071D00031F973E7002C64D0002E00F07C83B46892
:1071E00054F8042B1892052A40F3AD826FF06043E7
:1071F0009A4280F25184920010460C9223F0D9FDFD
:10720000189B0C9A1990052BD8BF19A8214626F077
:1072100011F97668002F00F05C83BD6855F8044BC7
:107220003094052C00F35983A40031A82246294646
:1072300026F000F97F68D8F8085055F8044B3694CA
:10724000052C00F33383A40037A82246294626F0F4
:10725000F1F836AB0193D8F804300293009730ABC5
:10726000324618A93CA8FEF76BFD369B052B03DDC3
:10727000379808B123F0CCF9309B052B03DD31980A
:1072800008B123F0C5F9189B052B7FF7E0AE1998DC
:1072900000283FF4DCAE23F0BBF9002051B0BDE87C
:1072A000F08F002E00F034837468002F00F02E83DE
:1072B0007D68DDF8F490DDE943A30C933E9B0D93CC
:1072C000459B0E93469B0F93429B1093D8F8043036
:1072D00016933F9B1193409B1293419B1393479BA3
:1072E0001493489B1593002E00F0F182B66856F86F
:1072F000042B1E92052A40F329826FF060439A42C4
:1073000080F2CA8392001046179223F052FD179A1A
:107310001F901DE22496C7B1BD6855F8044B309408
:10732000052C40F3FE816FF060439C4280F2B883ED
:10733000A400204623F03DFD309B3190052BD8BFA3
:1073400031A8F0E12A96344621E73097D8F8085062
:1073500055F8044B3694052C28DCA40037A82246A7
:10736000294626F067F836AB0193D8F8043002932B
:10737000009730AB324624A93CA8FFF79FF9369B13
:10738000052B03DD379808B123F042F9309B052B1C
:1073900003DD319808B123F03BF9249B052B7FF7DF
:1073A00056AE259800287FF476AF50E66FF0604324
:1073B0009C4280F22583A400204623F0FAFC369BF1
:1073C0003790052BD8BF37A8C9E730973D46D8F886
:1073D00008A05AF8042B3692052A40F395816FF0E5
:1073E00060439A4280F2FC824FEA8209484623F0C9
:1073F000E0FC37904A46514626F01CF8DDE9472369
:107400009A42D8F804C000F3E882052C40F3778153
:107410002B9A043A0120002352F8041F01339C42A6
:1074200001FB00F0F8DC052D40F36481319904394B
:1074300001220023864651F8040F01339D4200FBD0
:1074400002F2F8DC7046369B0C93052B40F34C811E
:107450003799984604394FF0010E0023914651F8B0
:10746000042F0133984502FB0EFEF8DC4A468242A7
:1074700040F0B182724540F0AC823D9B13F1FF0FAA
:10748000C0F2A5823E9911F1FF0FC0F2D082FF2B0E
:1074900000F3CB82FF2900F3C382002A40F30F815F
:1074A000701E82180E9207F1FF3EDFF808860D95D8
:1074B0000CF1FF370126DDF838C01A4681E083FB66
:1074C00005A5002DC0F2EE801AF1804A45F10005B5
:1074D0004FEADA7A4AEA4505B9F1000FC9F100012D
:1074E00000F32E8219F11F0FC0F23A8206FA01F35F
:1074F000013B4FEA630B45FA01F12B400BEBD575CD
:10750000AB42C8BF0131DDE94559AA4200F088808D
:1075100085FB02A5002DC0F2C9801AF1804A45F111
:1075200000054FEADA7A4AEA4505B9F1000FC9F1D8
:10753000000200F30D8219F11F0FC0F2198206FA42
:1075400002F3013B4FEA630B45FA02F22B400BEBCF
:10755000D575AB42C8BF01321144DDE940259142E7
:107560007FD082FB0123002BC0F2A48012F1804265
:1075700043F10003D20F42EA4302002DC5F100039C
:1075800000F3D6811F35C0F2CB8106FA03F1013931
:107590004D1042FA03F3114005EBD2729142C8BF7D
:1075A00001333F9A1344479A9342B8BF1346489A0F
:1075B0009342A8BF1346844507F8013F7ED0DDE91A
:1075C0003D2110F8013F429D13441EF8012F0A444B
:1075D000AB40AA40DDE94359AB427FF470AF83FB77
:1075E00003A5002DABBF4FF0804141464FF0000B8B
:1075F0004FF0FF3BB3F1004F08BF6FF000453FF481
:107600006BAF11EB0A014BEB0505002D04DA6FF0AF
:107610000043C91845F10005C90F41EA45055BE77C
:1076200082FB02A5002DABBF4FF0804343464FF0D5
:10763000000B4FF0FF3BB2F1004F08BF6FF0004569
:107640003FF473AF13EB0A034BEB0505002D04DA8F
:107650006FF000429B1845F10005DB0F43EA45053A
:1076600063E781FB0123002BABBF4FF08049C1468C
:107670004FF0000A4FF0FF3AB1F1004F08BF6FF032
:1076800000423FF47AAF19EB02024AEB0303002BEE
:1076900004DA6FF00041521843F10003D20F42EABE
:1076A00043026AE741464FF0FF3BAAE743464FF0EB
:1076B000FF3BC7E7C1464FF0FF3AE4E70D9D0C9B47
:1076C000052B03DD379808B122F0A2FF052D03DD5D
:1076D000319808B122F09CFF052C7FF7B8AC2B98AD
:1076E00000287FF4D8ADB2E4002B40F3088137A91D
:1076F0009846AFE6002D40F3078131A997E6002CAC
:1077000040F300812BAA84E64FEA820937A871E68C
:10771000AD0031A82A46494625F08CFE7F68309D91
:1077200055E6A40031A82246294625F083FE7F684D
:107730000CE6920025A8214625F07CFE7668EAE555
:1077400092002BA81EE5920019A85FE592001FA8E1
:10775000314625F06FFE1E9E002F00F0B680D7F850
:1077600008B05BF8047B3097052F40F3C5806FF0BD
:1077700060439F4280F25781BF00384623F019FBD7
:1077800031903A46594625F055FE309FD8F808B05A
:107790005BF8043B3693052B40F384806FF0604226
:1077A000934280F20E814FEA8308404623F001FBAA
:1077B00037904246594625F03DFE052E6EDD1F9A54
:1077C000043A0120002352F8041F0133B34201FBA5
:1077D00000F0F8DB052F5DDD319A043A012100232A
:1077E000844652F8040F0133BB4200FB01F1F8DB81
:1077F0006046DDF8D880B8F1050F46DD379BA3F170
:10780000040C012200238E465CF8041F01339845C6
:1078100001FB02F2F8DC7146814240F0D6808A42D8
:1078200040F0D180159B0A93149B0993139B0893F6
:10783000129B0793119B0693169B0593109B049331
:107840000F9B03930E9B02930D9B01930C9B0B923A
:1078500000934A4653462946204601F021FBB8F1E1
:10786000050F03DD379808B122F0D2FE052F03DDA6
:10787000319808B122F0CCFE052E7FF7E8AB1F98B7
:1078800000287FF408ADFFF7E2BBB8F1000F41DD3F
:1078900037ABB4E7002F3FDD31AA9EE7002E3DDD78
:1078A0001FAA8DE74FEA830837A882E76FF060438D
:1078B0009C4280F2DA80A400204623F07AFA369BBC
:1078C0003790052BD8BF37A8BFE430975EE71E96E8
:1078D00042E73097AFE418969CE46FF060439C4217
:1078E00080F2C680A400204623F063FA309B3190DA
:1078F000052BD8BF31A899E4BF0031A841E74FF06C
:10790000010EB4E501208EE501229CE53D46D0E460
:107910003446CAE401227FE701216AE7012059E7E2
:10792000604B614A61480D9D40F2671125F0A0F956
:107930005F4B5D4A5D480D9D4FF4B37125F098F99A
:107940005B4B594A59480D9D4FF4B37125F090F99E
:10795000574B554A55480D9D4FF4B37125F088F9A2
:10796000504B514A51480D9D40F2671125F080F966
:107970004C4B4D4A4D480D9D40F2671125F078F96A
:10798000369B052B03DD379808B122F041FE052D0B
:1079900003DD319808B122F03BFE052C03DD2B9866
:1079A00008B122F035FE22F035FE052F03DD3198B7
:1079B00008B122F02DFE052EF5DD1F980028F0D12C
:1079C000F1E722F0E2FE25F04BF925F049F925F028
:1079D00047F925F045F925F043F925F041F9D6E7B7
:1079E00022F0D3FE309B052B03DD319808B122F045
:1079F0000FFE249B052BD6DD25980028D1D1D2E798
:107A000022F0C3FE369B052B03DD379808B122F028
:107A1000FFFD309B052BC6DD31980028C1D1C2E7A0
:107A200025F01EF9C7E722F0B0FE25F019F925F080
:107A300017F9369B052BD5DD37980028D2D022F0D8
:107A4000E7FDCFE722F0A1FEA7E722F09EFE309BE4
:107A5000052B03DD319808B122F0DAFD189B052BC8
:107A6000A1DD199800289CD19DE722F08EFEF5E754
:107A700022F08BFEB8F1050F97DD3798002894D0DF
:107A800022F0C6FD91E7369B052BE0DD37980028F4
:107A9000DDD022F0BDFDDAE722F077FEB9E7A8E7F6
:107AA00022F073FE3CE7020094E60200F0E60200DA
:107AB00084E60200010000C02DE9F04F0B68D0F809
:107AC00008905F689E684B68D1F814B05D682DED32
:107AD000088B09EB871709EB861693B00C46804696
:107AE0003146384617F088FB4FEA851A80F00100CE
:107AF0008DF8140019F80A00032809EB851513D036
:107B0000092811D0012840F091804046CDE9016557
:107B1000009705AB5A462146FDF724FD002013B01F
:107B2000BDEC088BBDE8F08F96ED038A97ED03AAB4
:107B30003B69B4EEC8AA5B42F1EE10FA0F933369C9
:107B400054BFF0EE4A7AF0EE487A77EEA77A5B42BD
:107B500010932B69119317EE900A14230E9320F0C3
:107B6000D9FF41EC1B0B18EE100A20F0D3FF53ECA9
:107B70001B2B21F051F995ED037ADFED347A67EE96
:107B8000277A41EC190B17EE900A20F0C3FF02464A
:107B90000B4651EC1B0B21F03FF941EC180B1AEE90
:107BA000100A20F0B7FF53EC1B2B21F035F941EC04
:107BB000100B06A90AA81EF059FFB0EE490AF0EE14
:107BC000690A07A90BA81EF051FFB0EE480AF0EEB3
:107BD000680A0DA90CA81EF049FF09AB9BF800101C
:107BE00000932A4608AB404617F0CAF8C0B919F806
:107BF0000A00012889D0032801D0092816D1CDE92F
:107C00000165009705AB5A4621464046FFF712FA38
:107C1000003818BF012013B0BDEC088BBDE8F08F11
:107C2000012013B0BDEC088BBDE8F08FD8F81440EC
:107C300005F010F819F80A30054902464046A047F9
:107C4000012013B0BDEC088BBDE8F08F0000804927
:107C50004CE70200002070474B1C012B98BF704777
:107C60002DE9F003911C9B08B1F80480B1F8029053
:107C70000A8831F802CC8044814402448444D9F813
:107C80000070D8F800601568DCF80040C9F80060A2
:107C9000C8F80070CCF800501460D9F80470D8F817
:107CA00004605568DCF80440C9F80460C8F8047042
:107CB000CCF8045054600831013BD5D1BDE8F00345
:107CC00070474B1C012B98BF70472DE9F003911CA6
:107CD0009B08B1F80480B1F802900A8831F802CC10
:107CE00000EB580800EB590900EB520200EB5C0C6A
:107CF000D9F80070D8F800601568DCF80040C9F8C1
:107D00000060C8F80070CCF8005014600831013BE6
:107D1000DFD1BDE8F00370472DE9F041B0F80080F5
:107D20002DED088B0546084600EB88064FEA580102
:107D30005FEAD8086A6882B000F0B3804FEA810C2D
:107D40000CF1100C00F1100300EB0C0403EB08180D
:107D5000B44402F1100706F1100E5EED048A1EED28
:107D6000038A5CED044A5CED036A5CED025A13ED94
:107D7000025A1EED020A5EED010A5CED017A13ED76
:107D8000044A13ED036A13ED017A14ED042A54ED4D
:107D9000032A14ED021A54ED011A74EE28BA36EED5
:107DA00008BA72EE249A32EEA69A31EE253A71EEB6
:107DB000A73A75EE00AA37EE20AA43ED04BA03ED08
:107DC00003BA43ED02AA03ED01AA44ED049A04EDBF
:107DD000039A04ED023A44ED013A57ED043A17EDE7
:107DE000033A34EE684A36EE486A74EEC24A76EEDA
:107DF000E26A66EE038A64EE832A26EEA38A64EEC4
:107E0000A34A24EE232A26EE236A24EE034A66EED2
:107E1000836A36EE446A76EEA46A72EE283A32EE4F
:107E2000C84A4EED043A0EED036A4CED036A0CEDC0
:107E3000044A57ED024A17ED014A35EE406A37EE23
:107E4000607A75EEC16A77EEE17A26EE245A27EE63
:107E5000043A26EE046A66EE845A67EEA43A27EEE8
:107E6000247A67EE847A66EEA46A37EE467A35EEB7
:107E7000035A35EEE36A77EEA67A103343450EEDEA
:107E8000025A04F110040EED017A07F110070CED0F
:107E9000026A4CED017A0EF1100E0CF1100C7FF419
:107EA0005CAF89B20223019100F0E2FA6A6801999D
:107EB0000223304602B0BDEC088BBDE8F04100F073
:107EC000D7BA00BF2DE9F04F2DED0C8B03888FB092
:107ED00006460B900C910846590800EBC10292ED42
:107EE000006A92ED015AD0ED007AD0ED015A766821
:107EF000089200EB810595ED007A95ED013A09961F
:107F000077EE866A77EEC67A35EE856A75EEC55AE3
:107F100002EB810477EE263A75EEC74A76EEC76A21
:107F200037EE257AD4ED005A73EEA53A33EE274AA0
:107F300036EE435A77EEC37A94ED013AC0ED003A3B
:107F4000D5ED013A4F088B000146083174EEA54A81
:107F500076EEE56A37EE657A0391D4ED015A0A9719
:107F600036EE236A29460831069134EE434A11461B
:107F700035EE435A36EE256A083180ED016A0591E7
:107F800085ED004AC5ED014A1146C2ED006A82ED59
:107F9000015A22460832049277EE837ABA1E06F11D
:107FA0000807029706F11007C4ED007A84ED017A04
:107FB0005208009706F118070197079200F03C81DC
:107FC0009346A5F10C020D920C3B0A4606F12009DE
:107FD00006F13008DDF800A00D9E00F1100702F157
:107FE000100E234405F110000C39A4F10C0C04F11F
:107FF00010021EED025A57ED024A50ED027A12EDC0
:10800000021A5EED016A17ED018A52ED010A50ED88
:10801000015A34EE853A38EE266A37EE837A38EE26
:10802000668A37EE017A34EEC55A07ED027A10ED12
:10803000017A12ED014A36EE077A35EE85AA37EE5F
:10804000047A3AEE60AA07ED017A9CED022A96EDD9
:10805000027AD1ED02AAD3ED029ADCED012AD6ED27
:10806000011AD3ED014A91ED010A77EE026A71EE31
:10807000A23A3AEEA64A37EE422A34EE294A71EE87
:10808000E21A86ED024A91ED014AD3ED018A33EE00
:10809000844A78EE672A34EE287A32EE409A3AEE35
:1080A000E94A86ED017A1AED027A1AED01BA74EE08
:1080B000218A39EE249A72EE812A2AEE07CA69EEE5
:1080C0000BBA2AEE0BAA29EE079A22EE8BDA68EE9B
:1080D00087CA62EE872A68EE8B8A72EECA2A78EE29
:1080E000898A3BEEEC7A3CEE0DBA33EE673A36EE17
:1080F000656A76EEEA6A73EEC03A00ED02BA40EDC8
:10810000012A81ED027AC1ED018A59ED042A59ED67
:10811000038A73EEE43A36EEE97A33EE413A36EE0C
:10812000606A67EE626A23EE229A26EE28AA23EEA0
:10813000283A26EE226A63EEA89A27EE287A63EEA2
:10814000A23A36EE436A37EE637A36EEE93A79EED2
:108150000A2A74EEC06A75EE655A77EE887A4EED9B
:10816000022A0EED016A8CED023A8CED017A18EDCF
:10817000065A58ED054A34EE616A75EEA05A77EE5C
:10818000C17A36EEC27A66EE053A25EE854A27EECA
:10819000A43A67EE246A67EE857A27EE057A65EEE3
:1081A000A45A26EE246A34EE035A77EEE57A76EE88
:1081B000E36A36EE077ABBF1010B02ED025A42ED9B
:1081C000017A07F10807C3ED026A83ED017AA6F18F
:1081D00008060AF1080A00F10800A1F1080109F1F6
:1081E00010090EF1080EACF1080C08F1180802F1A4
:1081F0000802A3F108037FF4FCAE079B039A02EB8D
:10820000C3020392029A02EBC3020292069A02EBA5
:10821000C3020692009A02EB03120092059A02EB47
:10822000C3020592049A02EBC3020492019A03EB83
:10823000430302EBC3030193039A0599D2ED004A6D
:10824000D1ED006A069B049ED3ED007AD6ED003A8C
:1082500091ED015A92ED014AD3ED012A96ED013AD2
:108260000C9834EEA66A34EE057A77EE865A74EEF0
:10827000E66A75EEA35A34EE454AC2ED005AD3EDD4
:10828000015AD6ED014A77EE255A34EE675A75EE5B
:10829000A45A72EEA64AC2ED015A029A75EE235A0A
:1082A000D2ED001A92ED012A099A74EEC34A25EE26
:1082B000821A24EEA15A65EEA15A64EE824A35EE86
:1082C000015A75EEE45A83ED005AC3ED015A37EEB8
:1082D000627A009B36EE676AD3ED004A93ED015A4D
:1082E000019B36EE636A37EE437A66EE245A27EE38
:1082F000052A26EE056A27EE247A75EE825A37EEB5
:10830000467A76EEE26A77EE847A81ED017AC1ED03
:10831000005AD3ED005A93ED016ABDF8281036EEED
:10832000837A77EEE37A67EE256A27EE865A27EEA0
:10833000067A67EEA57A76EE856A77EEC77AC6ED9D
:10834000006A0423C6ED017A009100F091F82846F6
:108350000B9D00996A68042300F08AF808986A68FF
:108360000099042300F084F86A68009904232046E9
:108370000FB0BDEC0C8BBDE8F04F00F079B800BF3A
:10838000012A2DE9F0410588064617460C46984615
:108390005AD0B5F5807F52D00FD8402D14D04AD98D
:1083A000802D03D121463046FFF7B6FCB8F1000F0F
:1083B00013D1012F18D0BDE8F081B5F5006F3ED084
:1083C00032D9B5F5805FF1D1726801232946204684
:1083D00000F04EF8B8F1000FEBD0B268B18920463A
:1083E000FFF73AFC012FE6D107EE905AF8EE677AD4
:1083F000B7EE007AC7EE276A002DDCD004F1080141
:10840000002301339D4201F1080111ED047A51ED81
:10841000037A27EE267A67EEE67A01ED047A41EDDB
:10842000037AEED1BDE8F081B5F5007FCCD0B5F58B
:10843000806FB7D0BAE7102DB4D0202DB6D1214629
:108440003046FFF73FFDB1E77DB10C314FF0000C36
:1084500051ED027A0CF1010CF1EE677A654541EDC0
:10846000027A01F10801F3D193E7002BA3D0B4E71E
:108470002DE9F04F2DED108B8FB0CDE90A32034678
:108480000433DFEDB12A0C908A468B460D934FEAF8
:10849000DB0707EB8700C0000390C7EBC7000C9B0E
:1084A00009974FEAC7084FEACB044FEA0719C00003
:1084B0000194069008F1040409F1040003EB47114C
:1084C00007EB47061C4418447B010293330101EB80
:1084D0000715A7EB87020493F30005EBC20205938F
:1084E0000D9E019B01EBC70C4FF0000E02EB4717EE
:1084F0009CED003A97ED004A56ED01AA91ED006A15
:1085000054ED017A10ED01AAD5ED006AD2ED004AD2
:1085100077EE835A34EE840A3AEE268A3AEE865A89
:1085200075EE803A35EE087A77EEC37A37EE233A65
:1085300037EE637A06ED013A81ED007ADCED011A3F
:10854000D7ED018A94ED007A92ED012AD6ED009ADA
:10855000D1ED013A90ED009A95ED013A74EEC44ADE
:1085600032EE68BA37EE614A77EEE40A34EE4B1A1F
:1085700077EEA47A34EE0B4A32EE282A7AEE666A57
:1085800079EEA34A37EE217A79EEE33A79EE031ACF
:1085900060EEA20A39EE433A21EE221A3AEEC66A9A
:1085A00067EEA27A24EE224A35EE485A75EEC05A9A
:1085B00037EE428A34EEE10A37EE027A74EEA14ACF
:1085C00036EEE72A76EE601A76EEA77A36EE206A65
:1085D00073EE816A73EEC10A73EE443A33EE044AD5
:1085E00034EE879A36EE043A34EEC77A75EE088A8E
:1085F00076EEE74A30EE651A36EE446A77EEA67AF2
:1086000031EEA34A70EEC26A35EE485A75EE805AD2
:1086100071EEE31A32EE202ADE44F24586ED009A2E
:1086200081ED017A1E4440ED018A194485ED005A1E
:1086300080ED001AC5ED015A184404ED013A1D44BD
:1086400087ED006A8CED004AC2ED001AC4ED004AC5
:10865000C7ED017A1C44CCED016A1F4482ED012A6A
:108660009C441A443FF644AF9C46099B072B40F2BA
:10867000A181029F0C9B039D049C059806990837D5
:108680003B440C9F089308F10806BB1908350834D1
:1086900007937B19083006933B19083105933B1863
:1086A00009F10C0204937B180393BB18019307F1A3
:1086B0000C0302934FF001094FF0000863460A9A39
:1086C00090440B9A02EBC802D2ED00FA02EBC8020A
:1086D00092ED00FA02EBC802D2ED00EA02EBC8020A
:1086E00092ED00EA02EBC802D2ED00DA02EBC8021A
:1086F000A8EB880192ED00DA02EBC802D2ED00CAC5
:1087000092ED01CA02EB0112D2ED01BA02EBC802EE
:1087100092ED01BA02EBC802D2ED01AA02EBC80247
:1087200092ED01AA02EBC802D2ED019A02EBC80257
:1087300092ED019ADDE901C7DDE90365DDE9054058
:10874000DDE90712CE4601E0F304353F17ED012ABB
:1087500091ED003AD4ED007A95ED006A92ED005A61
:10876000D0ED004A5CED015A96ED007AD7ED008A13
:1087700032EE050A73EE240A75EEA73A36EE074A82
:1087800030EE231A70EE846A73EE644A31EE263AB4
:1087900075EEE75A07ED013A91ED018A90ED013A45
:1087A000DCED007A36EE477A32EE455A92ED016AF8
:1087B00038EE432A38EE033A94ED018A78EE861AB1
:1087C00071EE666A38EEC66A96ED011A77EE888A0F
:1087D00077EEC87A95ED018A70EE633A38EE410A79
:1087E00038EE018A30EEC44A33EE481A71EEE80AD8
:1087F00033EE088A71EEA88A33EE813A33EEC11A5D
:1088000078EEC83A38EE888A72EE408A87ED008AA0
:1088100032EE002A34EEC78A34EE877A28EE228AB6
:1088200022EE222A27EE227A68EEA28A35EEC70AC5
:1088300070EEC41A75EE484A35EE877A35EE085A5E
:1088400077EEC25A36EE688A74EE200A76EE288AEF
:108850002EEE264A77EE827A2AEE236A35EE272A12
:1088600034EE066A75EE677A2BEE214A34EEA55A8D
:108870006EEE233A74EEE54A6AEE266A78EEC75A3F
:1088800077EE288A38EE407A30EE088A2FEE030A17
:1088900073EEE66A30EE040A6FEE211A29EE204AE2
:1088A0006DEE013A6DEE200A2BEE033A29EE011A25
:1088B00031EEC33A30EEC11A6BEEA51A6FEE820AA2
:1088C0006FEEA55A2BEE822A82ED006AC2ED016A94
:1088D00073EE843A0CED010A2CEEA76A2CEE284ABE
:1088E0006DEE856A29EE870A70EEA11A35EEC22A6E
:1088F0006EEEA40A6AEE885A6CEEA88A6CEE277AAD
:108900002DEE877A29EE855A2EEE888A6AEEA44AE1
:1089100036EE044A78EEE78A76EE806A37EE457ADC
:1089200070EEA50A78EE644ADE44F2458CED003A1A
:108930001F44C4ED003A84ED011A1A44C1ED001A37
:1089400081ED012A9C4486ED004AC6ED018A1C4453
:10895000C0ED006A80ED017A1944C5ED000AC5ED4D
:10896000014A1E4418441D443FF6F0AE089A0832EE
:108970000892079A08320792069A08320692059AD8
:1089800008320592049A08320492039A083203923C
:10899000029A08320292019A08320192099A09F168
:1089A00001094A457FF48BAE0A9BDB009BB20A9318
:1089B00093466CE50FB0BDEC108BBDE8F08F00BFA7
:1089C000F0B595B01346BDF89C20BDF86C40BDF8DD
:1089D0007050BDF87460BDF878C012F0030722D162
:1089E0001192219A0B92209A0A921F9A09921A9A2E
:1089F0000192289A1392269A1092259A0F92249AFD
:108A00000E92239A0D92229A0C9201220092CDE9A5
:108A1000067C05960395029408920492129200F047
:108A200043F815B0F0BD6FF00200FAE70020704780
:108A30002DE9F0418AB003F0030EBDF85040BDF8B7
:108A40004CC0BDF84060BDF84880BDF85450BDF83A
:108A500058704CEA040C5EEA0C041FD1012D1DD1A4
:108A6000012F1BD104931E9B08931D9B07931B9BF7
:108A700006931C9B059302FB01F1199B019306FBD6
:108A800001F11A9B0093CDE90218DDE91723119932
:108A900000F0E8FC20460AB0BDE8F0816FF002006B
:108AA000F9E700BF002070472DE9F04FA7B08C46D2
:108AB000BDF8D8501F95BDF8DC50BDF8D040BDF8CA
:108AC000C0702095BDF8E050BDF808611690079180
:108AD000BDF8C800BDF8CC1017942195BDF8D4405E
:108AE000BDF80451DDF8F8901D979B461C92319B10
:108AF000119005911E9418952296002F00F01A816E
:108B000002FB0CF20BFB02F2199206FB05F200FBD2
:108B100002F267461A92002800F00C81002E00F045
:108B20000981002D00F0068103F1FF3A179B01FB3C
:108B300003F30BFB03F31B93634223933B1924932F
:108B40000BF1FF330022259353460D92CA460E9235
:108B500013929946169B0E9A0D9913443A9A1693BE
:108B60000A443A92002204920A92259A03F1FF38AD
:108B70001A444B460992C146984600230C930C991F
:108B8000219B1F9801FB03F31A1A002AA0EB030391
:108B9000C8BF00231293189B1198069201FB03F3A0
:108BA0000A9900FB03133A99CB1815931C9B9B1A47
:108BB000179A9342A8BF13460393239B0B931E9BC4
:108BC0001093249B0F9300235E461493CB460B9B7C
:108BD0000A9A002B109BC8BF00230293399B53F8BD
:108BE00022000F9B059A9342A8BF13469946039A09
:108BF000129B934235DA0B9A0193029B134408931C
:108C0000029B4B4527DA019B069AD718DDE907122C
:108C100001FB0727029A059901FB032C049B06FB25
:108C20000C3C099B06FB07F7DD19964666B10BEB7A
:108C3000070208EB0C0112F9013F11F9014F5344EF
:108C4000954204FB0300F6D10EF1010EF1453744C5
:108C5000B4443544EAD1019B039A01339A4201930B
:108C6000CEDC0A9B3B9A3C9952F8232051F8231002
:108C700022EAE27400FA04F4E30FB3EBD17F3A4B3B
:108C800006BF00204FF080434FF0FF30C4FB01309F
:108C9000002804DA6FF000455B1940F10000DB0F9B
:108CA000A14243EA400349D0002A4EDD3D9A0B9889
:108CB000159913443F9A9342B8BF1346409A934282
:108CC000A8BF1346209A0B7010440B901198149B68
:108CD000014415911099891A10910F998A1A0F92CF
:108CE000189A01339A4214937FF471AF0C9B229A25
:108CF00001339A42D9460C93B3463FF740AF049AEA
:108D00001B990A9B0A440492119A01339A420A93CE
:108D10007FF433AF0E9A1999139B0A440E921A9955
:108D20000D9A0A440D921D9A01339342C146139342
:108D30007FF410AF002027B0BDE8F08FB1F1004FF5
:108D4000B2D1002A6FF00043B0DC524201219140C1
:108D5000013901EA030013414FEA610148BF0131C3
:108D60008842C8BF0133A1E7010000C0002070475E
:108D70009FED1C7A20EE070AF5EE007A30EE270A06
:108D8000B5EEC00AF1EE10FAFDEEC07A04D517EE8A
:108D9000903A013B07EE903AF8EEE77A9FED127AAF
:108DA000124A70EE677AB7EE000A67EE877ABCEE79
:108DB000E77A17EE103AC3F3080307EE103AB8EE5D
:108DC000477A02EB830177EEC77AD1ED006A91ED25
:108DD000017A30EE670A67EE877A20EE260A30EED7
:108DE000270A704783F9223E0000004450E9020040
:108DF00030B59508DFED297A2ED000F1100E01F183
:108E0000100C2C461CED047A1EED046A5CED035A2E
:108E10005EED036A1CED025A26EE076A66EEA56A4D
:108E20001EED027A5CED015A36EE276A27EE057ACE
:108E30005EED017A76EE866A67EEA57A37EE267ADF
:108E4000013C77EE877A0EF1100E0CF1100CD9D19F
:108E500000EB051001EB051112F003021BD091EDA0
:108E6000007AD0ED006A27EE267A013A77EE877A0B
:108E700011D091ED017AD0ED016A27EE267A012A10
:108E800077EE877A07D090ED027AD1ED026A27EE6D
:108E9000267A77EE877AC3ED007A30BD00000000B5
:108EA0002DE9F04F93B0DDE920A60692279ADDF870
:108EB00078C0239D002A00F0DD801C9C67421F9C27
:108EC000079764420294249CB21864420E920122D5
:108ED000039402FA07F7029C013F049702FA04F791
:108EE000039CA2407C1E049F0A947F10013A0597C0
:108EF0004FEA620B0992059A604F641001320D929D
:108F0000621C0C920BF101020892EA0F0F92CDE95C
:108F100000014FEADC721092DA0F0B9411926FF09D
:108F200000496446009A119912F9018B0092069A41
:108F3000904408FA0AF84FEAD8728A42019A12F964
:108F400001EB01921D9A18BFBC4696440ABF4FF030
:108F5000804C4FF0FF320022C8FB03C2002A0EFAF9
:108F60000AFE03DA1CEB090C42F100024FEADC7C3A
:108F700043454CEA420204D1B3F1004F08BF6FF001
:108F8000004207990D9852FA01F8049902EA010289
:108F900005994CBF84468C46109994454FEADE7281
:108FA000B8BF08F101088A4215BFBC464FF0804C9B
:108FB0004FF0FF320022CEFB04C2002A03DA1CEB82
:108FC000090C42F100024FEADC7C74454CEA420293
:108FD00004D1B4F1004F08BF6FF00042029952FA79
:108FE00001FC0A9902EA0102DDE90B1054BF8E462A
:108FF00086469645B8BF0CF1010C0F9AC444B2EBFB
:10900000DC7F15BFBE464FF0804E4FF0FF3200228E
:10901000C5FB0CE2002A904603DA1EEB090E42F172
:1090200000084FEADE72654542EA480204D1B5F114
:10903000004F08BF6FF00042039952FA01FC0999F2
:1090400002EA0102089954BFDE468E467245229A12
:10905000C8BF0CF1010C9444259A9445B8BF9446BE
:10906000269A9445A8BF944606F801CB0E9AB242C0
:109070007FF458AF002013B0BDE8F08F010000C0AE
:109080002DE9F04F8DB09046BDF85840DDF8649062
:10909000DDE917BADDE91C26F4B1474605469846D6
:1090A0001F9B08931E9B0597CDE906831A9BCDF85D
:1090B00000B0CDE903931B9B1C92013CCDE901A3B9
:1090C00028463346A4B20B91464400F0E9FC3D44E7
:1090D0000B991C9A002CE3D100200DB0BDE8F08F55
:1090E000002070472DE9F04FB0F800B04688456881
:1090F0004C68BBF1010F4FEA960787B006F00306F4
:109100004FEA8B033ED15FB307F1FF391FFA89F1B4
:1091100005F1200909EB011905F1100204F108001D
:10912000214652F810CCC1F800C001EB030E52F8F2
:109130000C8CCEF8008052F808ECC0F800E000EB90
:10914000030C10324A4552F814ECCCF800E001F15F
:10915000100100F11000E4D105EB071504EB071432
:1091600066B1013E2A682260B6B21C4436B16A6814
:109170002260012E23441CBFAA681A60002007B099
:10918000BDE8F08F7A1E92B2711E88B2511C120196
:1091900020320392421C920004924FEACB024FEA23
:1091A0000B1C02920A0101920CFB01F20590009245
:1091B0004FF0000A04EB8A092FB3029909EB010072
:1091C000039905F1100205EB0108494652F810EC2D
:1091D000C1F800E052ED037A01EB030ECEED007A08
:1091E00052F808ECC0F800E052ED017A103200EBC2
:1091F000030E42456144CEED007A6044E6D1019A07
:109200001544009A914486B12A68C9F80020059A4D
:10921000994442B16A68C9F80020022E99441CBFE3
:10922000AA68C9F80020049A15440AF1010A1FFA35
:109230008AFAD345BED1002007B0BDE8F08F00BF49
:109240002DE9F04F93B0CDE906130A90BDF87400F4
:109250000D90BDF878000E90BDF87C000F90BDF821
:1092600080001090BDF8840011909DF98800BDF831
:10927000704001909DF98C00BDF890A00C94029074
:109280000B92002A7FD0002B7DD0BAF1000F7AD04C
:10929000002301FB0AFB049304990C9B109801FB2B
:1092A00003F31A1AC31A0A98002AD8BF994603442E
:1092B0000E98C8BF4FF000099842A8BF1846069BF9
:1092C0004A4403FB02F30993079B01FB03F3089352
:1092D00000238446059305990D9B11980F9C01FB73
:1092E00003F2131A002BA0EB0202D8BF1746089A0C
:1092F00001EB0208279A06990AFB0828099A1A44E2
:10930000A1EB0303C8BF00279C42A8BF1C46259BB6
:109310003A440AFB023308F1FF3803934FF0000E82
:10932000E14534DA039B4D460EEB03066FF07F01F7
:10933000A7420ADA32463B4692F9000001338142E5
:10934000B8BF01469C425244F6D10135AC455E445B
:10935000EED1019B9942B8BF1946029B0EF1010E56
:109360009942A8BF1946D64508F8011FD8D1059BD8
:10937000079A013393420593ADDB049B0B9A0133AB
:109380009342049388DB002013B0BDE8F08F6FF0A8
:109390007F01DEE710B58CB0BDF838400094BDF811
:1093A0003C400194BDF840400294BDF84440039411
:1093B000BDF848400494BDF84C4005949DF95040D8
:1093C00006949DF954400794BDF858400894179CA2
:1093D0000994189C0A94199C0B94FFF731FF002004
:1093E0000CB010BD00B55FEA910EDFED1D7A19D00B
:1093F00000F11003F44653ED046A13ED037A77EE9F
:10940000A67A53ED026A77EE877A13ED017A77EE4A
:10941000A67ABCF1010C77EE877A03F11003EAD14A
:1094200000EB0E1011F003030FD090ED007A013B1A
:1094300077EE877A09D090ED017A012B77EE877A63
:109440001CBF90ED027A77EE877A07EE101AB8EE1D
:10945000477AC7EE876AC2ED006A5DF804FB00BF79
:10946000000000002DE9F04F9DB0299C1390601E74
:109470000028DDF8A8B01B9114921193169040F3C8
:109480008981289C6010299C17901D460BF1FF33A1
:1094900001EB030804FB00F305EB43031993234698
:1094A0000133EB181A93289B03F0010315934FEA3D
:1094B0004B0312934B1E0B9363001093134604331C
:1094C0001893269B04334FF000090F934346DA4666
:1094D000C8469946119B00214344BAF1000F0193FD
:1094E000D8BF0A4610DD0B9A48460B4612F9014FC9
:1094F000234410F9014F91452144F7D12B9A03FBE6
:1095000002F22B9B03FB01F1149B53F82830D31874
:109510000C93189B53F82830CB180D93179B002BF6
:1095200000F08A821A9ADDF84CB0CDF808804244E7
:10953000CDE90332279B04330E93D846BAF1000FCE
:1095400040F3E6810D990C980B9C08F1FF350A4613
:10955000034614F901CF15F9016F14F90A7016FBCF
:109560000C0016FB071115F90A60A1451CFB063318
:1095700017FB0622EDD1D044029C279D55F824C04C
:10958000269D55F824502CEAEC74A04007944FEA2D
:10959000D57BC40F5C45BF4C06BF00274FF080440D
:1095A0004FF0FF37C0FB0547002F04DA6FF000468D
:1095B000A41947F10007E40F44EA470485420094E8
:1095C00000F09581BCF1000F40F369814FF0000E6F
:1095D000CDF828E0CDF820E002980E9C54F82060E9
:1095E0000F9C54F8204026EAE67081400590E00F79
:1095F00007460690C80FB842A6480BBF4FF08047F9
:10960000074600204FF0FF30C1FB0470002884465D
:1096100004DA6FF000403F184CF1000CF80F8C4258
:1096200040EA4C0000F05581002E40F31F814FF0BE
:10963000000C6746CDF824C007998B40D90F5945D7
:10964000944906BF4FF0000B4FF080414FF0FF3BB5
:10965000C3FB051BBBF1000F04DA6FF0004689194C
:109660004BF1000BC90F9D4241EA4B0104D1B5F10A
:10967000004F08BF6FF00041089D0A9B0B40294135
:1096800048BF0EF1010E7345059B069D02FA03F2D9
:109690004FEAD273C8BF0131AB427E4B06BF0025F3
:1096A0004FF080434FF0FF35C2FB0435002D04DA44
:1096B0006FF000469B1945F10005DB0F944243EA29
:1096C000450304D1B4F1004F08BF6FF00043099A7D
:1096D0002C9C1F40134148BF0CF1010C6745009AB8
:1096E000C8BF013322442044214423442D9CA2427C
:1096F000B8BF2246A042B8BF2046A142B8BF21460B
:10970000A342B8BF23462E9CA242A8BF2246019C7A
:1097100022702E9A9042A8BF104660702E98814207
:10972000A8BF0146049800F8011C2E998B42A8BFDF
:109730000B460370109B22461A44C3180493039BE4
:109740000192013B0146D04403937FF4F7AE199B8D
:10975000C346DDF8088043440193159B002B40F07D
:10976000DC800B9B129A13440B93169B08F10208A2
:10977000434591443FF7AEAE299B1B99023B5B08E2
:1097800003FB02221144119A1B91013302EB4303A4
:10979000D3461193299BDB0762D5289B002B5FDD05
:1097A000299B149ADFF8ECE02B9C03F18043013BEA
:1097B00002EB8306269A02EB8307279ACDE900671E
:1097C00002EB830C119E139A00206FF000484FF0BB
:1097D0000109009BBBF1000F19680CDD1B9B02EB1C
:1097E0000B0A5D1E12F9013B15F9017F2344524516
:1097F00007FB0311F6D1019BDCF800701D6827EA16
:10980000E7739940CB0FB3EBD57F0BBF4FF080438D
:1098100073464FF0000A4FF0FF3AC1FB053ABAF128
:10982000000F03DA13EB08034AF1000ADB0F8D4245
:1098300043EA4A0300F01981002F40F31F812C995D
:109840000B442D998B42B8BF0B462E998B42A8BF73
:109850000B463370299B1E44289B01308342B8D1AC
:1098600000201DB0BDE8F08F6FF00040764201216E
:1098700001FA06F7013F07EA00014FEA670C3041A1
:1098800009964CBF0CF101066646B1427FF7D4AE93
:109890000130D1E6010000C06FF000400090CCF133
:1098A00000040120009F0894A040461E57FA04F4CB
:1098B0004FEA660E009406EA07004CBF0EF1010461
:1098C0007446A0420A967FF787AE00980130009058
:1098D00082E6B4F1004F7FF4A7AE002EC4DD4FF056
:1098E000000C6746CDF824C06FF00040A4E6B5F147
:1098F000004F7FF467AEBCF1000FCDDD4FF0000EDE
:109900006FF00040CDF828E0CDF820E0009063E64D
:109910000D990C980A4603462EE6BAF1000F13DDA6
:10992000DDE90B200D9D0BEB0A0449461BF9013BB9
:1099300012F9016F13FB060011F9016FA34513FB28
:109940000655F3D1CDE90C05279B53F82840269BFB
:1099500053F828000C9B24EAE47293401A46DB0F6C
:10996000B3EBD07F4D4B06BF00214FF080434FF04B
:10997000FF31C2FB0031002904DA6FF000455B19AA
:1099800041F10001DB0F904243EA41053ED0002C3B
:1099900043DD279B043353F828400F9B53F82800DE
:1099A0000D9B24EAE47293401A46DB0FB3EBD07FA1
:1099B0003A4B06BF00214FF080434FF0FF31C2FB0E
:1099C0000031002904DA6FF000469B1941F10001D3
:1099D000DB0F904243EA410331D0002C36DD2C9955
:1099E0002C9A0B442D992A448A42B8BF0A468B42CE
:1099F000B8BF0B462E998A42A8BF0A4601990A7041
:109A00002E9A9342A8BF13464B70AAE6B0F1004FBE
:109A1000BDD1002C6FF00045BBDC624201239340B6
:109A2000013B03EA050115414FEA630348BF0133D7
:109A30009942C8BF0135ACE7DDF84CB08DE6B0F116
:109A4000004FCAD1002C6FF00043C8DC61420122F4
:109A50008A40013A02EA03000B414FEA620248BF22
:109A600001329042C8BF0133B9E7B5F1004F7FF42E
:109A7000E3AE002F6FF000433FF7E1AE7F4209FAFB
:109A800007F1013901EA03053B414FEA610148BF93
:109A900001318D42C8BF0133D1E600BF010000C0D3
:109AA0002DE9F04F8FB0CDE909121E9C189E199D2B
:109AB000DDF86C800590012C0B9340F3BD802746A8
:109AC0001C9C9C4664420123023FA34006945C1EFA
:109AD00027F00103634404330794049363101D9C2F
