:1040000000800020F91F0200252002002520020068
:104010002520020025200200252002002520020084
:104020002520020025200200252002002520020074
:104030002520020025200200252002002520020064
:10404000CD1201000D8E0000252002002520020067
:10405000252002008D42010025200200498E00002B
:1040600025200200252002002520020021860100D3
:10407000758E0000458601002520020025200200E3
:104080002520020025200200252002002520020014
:104090002520020025200200A9850100252002001C
:1040A00025200200252002002520020025200200F4
:1040B0002520020025200200E98D000025200200B5
:1040C00025200200252002002520020025200200D4
:1040D00025200200252002002520020025200200C4
:1040E00010B5054C237833B9044B13B10448AFF332
:1040F00000800123237010BD000600200000000096
:10410000C4EC020008B5034B1BB103490348AFF3ED
:10411000008008BD0000000004060020C4EC02007E
:10412000A3F5803A704700BF174B002B08BF134B15
:104130009D46FFF7F5FF00218B460F461348144AB2
:10414000121A23F06DFE0E4B002B00D098470D4B3A
:10415000002B00D098470020002104000D000D48DE
:10416000002802D00C48AFF3008023F0A3FD20000C
:10417000290017F0E9FA23F0CBFC00BF000008008B
:104180000000000000000000008000200006002069
:10419000F42D002000000000000000002DE9F04F89
:1041A0009FB0D2F80CB0299D289C6E680D96AE6821
:1041B0001693D2E901574A6818920A680F9262680A
:1041C0001992A2680C69CB68109211948A684C69A4
:1041D0000D9912940029C3F1000400680E961797F8
:1041E0001A920A9440F3BB805142002E1B9140F377
:1041F000B6800C93EB18A0F1040A0B9307FB0BF3AA
:1042000002930AEB8B0314930BFB06F31C9300231E
:104210001393BB181D930A9B0C9A002BC8BF002256
:10422000D3180892179A02FB03F31593199A0B9B64
:104230009342A8BF134601931A9B07931D9B0693B5
:104240001B9B04932A9B059300230993049B109ABC
:10425000002B079BD8BF9846069BC8BF4FF00008AD
:104260009342A8BF13469946019A089B934280F255
:104270008B80159A9E46049B03EB020C169BC4444C
:104280000BFB0C3CA9EB08030CF1FF3C002503934E
:10429000C84519DA039B0BEB0C045F196646002D29
:1042A00061D0BBF1000F0ADD5146324612F9013FE1
:1042B00051F8040F80FA83F3A2420B60F6D1013566
:1042C000BD425E445C44EAD1029B9C44019B0EF1DA
:1042D000010E7345DCD16810BBF1000F17DD059BA3
:1042E000149FDDE911465246591E52F8043F002B37
:1042F000CCBF1B181B1A93FBF5F3A342B8BF234690
:10430000B342A8BF3346974201F8013FEDD1059A69
:104310000499099B5A4405920F9A114404910799F4
:10432000891A079106998A1A06920E9A01339A42BF
:1043300009938BD12A9A1C99139B0A442A920A99B1
:10434000189A11440A910C99891A0C910B998A1A9E
:104350000B920D9A01339A4213937FF45CAF0020C5
:104360001FB0BDE8F08FBBF1000FA8DD5246334609
:1043700013F9011F42F8041FA342F9D10135BD42D0
:104380005E445C448BD19FE700200546A4E700BF54
:10439000880070474B1C012B98BF70472DE9F00334
:1043A000911C9B08B1F80480B1F802900A8831F89A
:1043B00002CC8044814402448444D9F80070D8F887
:1043C00000601568DCF80040C9F80060C8F80070AB
:1043D000CCF800501460D9F80470D8F8046055681F
:1043E000DCF80440C9F80460C8F80470CCF8045044
:1043F00054600831013BD5D1BDE8F00370474B1C38
:10440000012B98BF70472DE9F003911C9B08B1F870
:104410000480B1F802900A8831F802CC00EB580809
:1044200000EB590900EB520200EB5C0CD9F800706C
:10443000D8F800601568DCF80040C9F80060C8F8DA
:104440000070CCF8005014600831013BDFD1BDE8AA
:10445000F00370472DE9F041B0F800802DED088B96
:104460000546084600EB88064FEA58015FEAD8087F
:104470006A6882B000F0B3804FEA810C0CF1100C36
:1044800000F1100300EB0C0403EB0818B44402F134
:10449000100706F1100E5EED048A1EED038A5CED36
:1044A000044A5CED036A5CED025A13ED025A1EEDFC
:1044B000020A5EED010A5CED017A13ED044A13ED88
:1044C000036A13ED017A14ED042A54ED032A14ED66
:1044D000021A54ED011A74EE28BA36EE08BA72EEDA
:1044E000249A32EEA69A31EE253A71EEA73A75EE8D
:1044F00000AA37EE20AA43ED04BA03ED03BA43ED58
:1045000002AA03ED01AA44ED049A04ED039A04ED16
:10451000023A44ED013A57ED043A17ED033A34EE0E
:10452000684A36EE486A74EEC24A76EEE26A66EE91
:10453000038A64EE832A26EEA38A64EEA34A24EE5D
:10454000232A26EE236A24EE034A66EE836A36EEB9
:10455000446A76EEA46A72EE283A32EEC84A4EED0C
:10456000043A0EED036A4CED036A0CED044A57ED74
:10457000024A17ED014A35EE406A37EE607A75EE71
:10458000C16A77EEE17A26EE245A27EE043A26EE47
:10459000046A66EE845A67EEA43A27EE247A67EE40
:1045A000847A66EEA46A37EE467A35EE035A35EE23
:1045B000E36A77EEA67A103343450EED025A04F112
:1045C00010040EED017A07F110070CED026A4CEDB4
:1045D000017A0EF1100E0CF1100C7FF45CAF89B271
:1045E0000223019100F0E2FA6A6801990223304641
:1045F00002B0BDEC088BBDE8F04100F0D7BA00BFB7
:104600002DE9F04F2DED0C8B03888FB006460B90F3
:104610000C910846590800EBC10292ED006A92ED38
:10462000015AD0ED007AD0ED015A7668089200EB7D
:10463000810595ED007A95ED013A099677EE866A47
:1046400077EEC67A35EE856A75EEC55A02EB8104BF
:1046500077EE263A75EEC74A76EEC76A37EE257AC8
:10466000D4ED005A73EEA53A33EE274A36EE435A9C
:1046700077EEC37A94ED013AC0ED003AD5ED013AF8
:104680004F088B000146083174EEA54A76EEE56AC4
:1046900037EE657A0391D4ED015A0A9736EE236A14
:1046A00029460831069134EE434A114635EE435A05
:1046B00036EE256A083180ED016A059185ED004AE4
:1046C000C5ED014A1146C2ED006A82ED015A22464B
:1046D0000832049277EE837ABA1E06F10807029731
:1046E00006F11007C4ED007A84ED017A52080097B4
:1046F00006F118070197079200F03C819346A5F157
:104700000C020D920C3B0A4606F1200906F1300816
:10471000DDF800A00D9E00F1100702F1100E2344F9
:1047200005F110000C39A4F10C0C04F110021EED7F
:10473000025A57ED024A50ED027A12ED021A5EED6E
:10474000016A17ED018A52ED010A50ED015A34EE6B
:10475000853A38EE266A37EE837A38EE668A37EE87
:10476000017A34EEC55A07ED027A10ED017A12EDA6
:10477000014A36EE077A35EE85AA37EE047A3AEE2C
:1047800060AA07ED017A9CED022A96ED027AD1ED3E
:1047900002AAD3ED029ADCED012AD6ED011AD3ED7F
:1047A000014A91ED010A77EE026A71EEA23A3AEE01
:1047B000A64A37EE422A34EE294A71EEE21A86ED15
:1047C000024A91ED014AD3ED018A33EE844A78EE34
:1047D000672A34EE287A32EE409A3AEEE94A86EDBC
:1047E000017A1AED027A1AED01BA74EE218A39EED5
:1047F000249A72EE812A2AEE07CA69EE0BBA2AEED3
:104800000BAA29EE079A22EE8BDA68EE87CA62EECF
:10481000872A68EE8B8A72EECA2A78EE898A3BEE86
:10482000EC7A3CEE0DBA33EE673A36EE656A76EE18
:10483000EA6A73EEC03A00ED02BA40ED012A81ED5A
:10484000027AC1ED018A59ED042A59ED038A73EE0B
:10485000E43A36EEE97A33EE413A36EE606A67EED4
:10486000626A23EE229A26EE28AA23EE283A26EE42
:10487000226A63EEA89A27EE287A63EEA23A36EE11
:10488000436A37EE637A36EEE93A79EE0A2A74EE35
:10489000C06A75EE655A77EE887A4EED022A0EED03
:1048A000016A8CED023A8CED017A18ED065A58ED4A
:1048B000054A34EE616A75EEA05A77EEC17A36EE9B
:1048C000C27A66EE053A25EE854A27EEA43A67EEEF
:1048D000246A67EE857A27EE057A65EEA45A26EEFD
:1048E000246A34EE035A77EEE57A76EEE36A36EE22
:1048F000077ABBF1010B02ED025A42ED017A07F192
:104900000807C3ED026A83ED017AA6F108060AF1F1
:10491000080A00F10800A1F1080109F110090EF1DF
:10492000080EACF1080C08F1180802F10802A3F116
:1049300008037FF4FCAE079B039A02EBC3020392C9
:10494000029A02EBC3020292069A02EBC30206929B
:10495000009A02EB03120092059A02EBC302059241
:10496000049A02EBC3020492019A03EB430302EBA5
:10497000C3030193039A0599D2ED004AD1ED006A71
:10498000069B049ED3ED007AD6ED003A91ED015AD4
:1049900092ED014AD3ED012A96ED013A0C9834EEDE
:1049A000A66A34EE057A77EE865A74EEE66A75EEFC
:1049B000A35A34EE454AC2ED005AD3ED015AD6ED62
:1049C000014A77EE255A34EE675A75EEA45A72EE14
:1049D000A64AC2ED015A029A75EE235AD2ED001A88
:1049E00092ED012A099A74EEC34A25EE821A24EE4A
:1049F000A15A65EEA15A64EE824A35EE015A75EE6F
:104A0000E45A83ED005AC3ED015A37EE627A009BF7
:104A100036EE676AD3ED004A93ED015A019B36EEFC
:104A2000636A37EE437A66EE245A27EE052A26EEAD
:104A3000056A27EE247A75EE825A37EE467A76EECC
:104A4000E26A77EE847A81ED017AC1ED005AD3ED06
:104A5000005A93ED016ABDF8281036EE837A77EE9E
:104A6000E37A67EE256A27EE865A27EE067A67EE26
:104A7000A57A76EE856A77EEC77AC6ED006A0423DA
:104A8000C6ED017A009100F091F828460B9D00993F
:104A90006A68042300F08AF808986A680099042379
:104AA00000F084F86A680099042320460FB0BDEC3A
:104AB0000C8BBDE8F04F00F079B800BF012A2DE95A
:104AC000F0410588064617460C4698465AD0B5F57B
:104AD000807F52D00FD8402D14D04AD9802D03D1D9
:104AE00021463046FFF7B6FCB8F1000F13D1012F75
:104AF00018D0BDE8F081B5F5006F3ED032D9B5F5DC
:104B0000805FF1D1726801232946204600F04EF8FB
:104B1000B8F1000FEBD0B268B1892046FFF73AFC3C
:104B2000012FE6D107EE905AF8EE677AB7EE007AD9
:104B3000C7EE276A002DDCD004F108010023013301
:104B40009D4201F1080111ED047A51ED037A27EE3F
:104B5000267A67EEE67A01ED047A41ED037AEED12A
:104B6000BDE8F081B5F5007FCCD0B5F5806FB7D04A
:104B7000BAE7102DB4D0202DB6D121463046FFF72C
:104B80003FFDB1E77DB10C314FF0000C51ED027AE1
:104B90000CF1010CF1EE677A654541ED027A01F105
:104BA0000801F3D193E7002BA3D0B4E72DE9F04F30
:104BB0002DED108B8FB0CDE90A3203460433DFEDC3
:104BC000B12A0C908A468B460D934FEADB0707EB20
:104BD0008700C0000390C7EBC7000C9B09974FEA02
:104BE000C7084FEACB044FEA0719C00001940690AA
:104BF00008F1040409F1040003EB471107EB470631
:104C00001C4418447B010293330101EB0715A7EB09
:104C100087020493F30005EBC20205930D9E019BEE
:104C200001EBC70C4FF0000E02EB47179CED003A6A
:104C300097ED004A56ED01AA91ED006A54ED017A14
:104C400010ED01AAD5ED006AD2ED004A77EE835A45
:104C500034EE840A3AEE268A3AEE865A75EE803AA7
:104C600035EE087A77EEC37A37EE233A37EE637A79
:104C700006ED013A81ED007ADCED011AD7ED018AEB
:104C800094ED007A92ED012AD6ED009AD1ED013A29
:104C900090ED009A95ED013A74EEC44A32EE68BA8E
:104CA00037EE614A77EEE40A34EE4B1A77EEA47AD7
:104CB00034EE0B4A32EE282A7AEE666A79EEA34A7F
:104CC00037EE217A79EEE33A79EE031A60EEA20A22
:104CD00039EE433A21EE221A3AEEC66A67EEA27A1C
:104CE00024EE224A35EE485A75EEC05A37EE428A13
:104CF00034EEE10A37EE027A74EEA14A36EEE72A84
:104D000076EE601A76EEA77A36EE206A73EE816A46
:104D100073EEC10A73EE443A33EE044A34EE879AD6
:104D200036EE043A34EEC77A75EE088A76EEE74A34
:104D300030EE651A36EE446A77EEA67A31EEA34A73
:104D400070EEC26A35EE485A75EE805A71EEE31A7B
:104D500032EE202ADE44F24586ED009A81ED017A9A
:104D60001E4440ED018A194485ED005A80ED001A79
:104D7000C5ED015A184404ED013A1D4487ED006A5F
:104D80008CED004AC2ED001AC4ED004AC7ED017A6D
:104D90001C44CCED016A1F4482ED012A9C441A4454
:104DA0003FF644AF9C46099B072B40F2A181029F2E
:104DB0000C9B039D049C0598069908373B440C9F67
:104DC000089308F10806BB190835083407937B19C6
:104DD000083006933B19083105933B1809F10C0282
:104DE00004937B180393BB18019307F10C03029300
:104DF0004FF001094FF0000863460A9A90440B9A5D
:104E000002EBC802D2ED00FA02EBC80292ED00FA02
:104E100002EBC802D2ED00EA02EBC80292ED00EA12
:104E200002EBC802D2ED00DA02EBC802A8EB88015F
:104E300092ED00DA02EBC802D2ED00CA92ED01CA8F
:104E400002EB0112D2ED01BA02EBC80292ED01BAF7
:104E500002EBC802D2ED01AA02EBC80292ED01AA50
:104E600002EBC802D2ED019A02EBC80292ED019A60
:104E7000DDE901C7DDE90365DDE90540DDE907128C
:104E8000CE4601E0F304353F17ED012A91ED003ADB
:104E9000D4ED007A95ED006A92ED005AD0ED004A0B
:104EA0005CED015A96ED007AD7ED008A32EE050AE4
:104EB00073EE240A75EEA73A36EE074A30EE231A4F
:104EC00070EE846A73EE644A31EE263A75EEE75A64
:104ED00007ED013A91ED018A90ED013ADCED007A9F
:104EE00036EE477A32EE455A92ED016A38EE432AA1
:104EF00038EE033A94ED018A78EE861A71EE666A0E
:104F000038EEC66A96ED011A77EE888A77EEC87A8F
:104F100095ED018A70EE633A38EE410A38EE018A67
:104F200030EEC44A33EE481A71EEE80A33EE088ACE
:104F300071EEA88A33EE813A33EEC11A78EEC83AA0
:104F400038EE888A72EE408A87ED008A32EE002AB7
:104F500034EEC78A34EE877A28EE228A22EE222A9D
:104F600027EE227A68EEA28A35EEC70A70EEC41ADE
:104F700075EE484A35EE877A35EE085A77EEC25A12
:104F800036EE688A74EE200A76EE288A2EEE264ADD
:104F900077EE827A2AEE236A35EE272A34EE066A05
:104FA00075EE677A2BEE214A34EEA55A6EEE233A5F
:104FB00074EEE54A6AEE266A78EEC75A77EE288ADA
:104FC00038EE407A30EE088A2FEE030A73EEE66A76
:104FD00030EE040A6FEE211A29EE204A6DEE013AF6
:104FE0006DEE200A2BEE033A29EE011A31EEC33A98
:104FF00030EEC11A6BEEA51A6FEE820A6FEEA55A5B
:105000002BEE822A82ED006AC2ED016A73EE843AC9
:105010000CED010A2CEEA76A2CEE284A6DEE856A8B
:1050200029EE870A70EEA11A35EEC22A6EEEA40AA6
:105030006AEE885A6CEEA88A6CEE277A2DEE877A93
:1050400029EE855A2EEE888A6AEEA44A36EE044A84
:1050500078EEE78A76EE806A37EE457A70EEA50A3A
:1050600078EE644ADE44F2458CED003A1F44C4ED0C
:10507000003A84ED011A1A44C1ED001A81ED012AAB
:105080009C4486ED004AC6ED018A1C44C0ED006ACE
:1050900080ED017A1944C5ED000AC5ED014A1E44B0
:1050A00018441D443FF6F0AE089A08320892079A59
:1050B00008320792069A08320692059A083205923B
:1050C000049A08320492039A08320392029A083230
:1050D0000292019A08320192099A09F101094A459E
:1050E0007FF48BAE0A9BDB009BB20A9393466CE580
:1050F0000FB0BDEC108BBDE8F08F00BF2DE9F04381
:105100000C9CA568AC07DDE90ACE03D1BDE8F043ED
:1051100000F050B86FF00200BDE8F083D1E9013231
:10512000C06802FB00F003FB00F08000704700BF86
:10513000D86810F0030F38D18C460969002934D1A2
:1051400010B5DCF814408AB064BBDCF80810012903
:1051500028D1DCF80C10012924D111990490C968D8
:105160000391D3E901011B6800FB01F103FB01F18D
:10517000D2E90030CDE901010093DCF82400089069
:10518000DCF820000790DCF804000690DCF8000052
:105190000590129B109A0E990C9801F0A7F82046E2
:1051A0000AB010BD6FF00200FAE76FF0020070471E
:1051B000002070472DE9F04F2DED048BADB0006855
:1051C0001C881690D3E90189D8680B6912934B6942
:1051D00022938B681393CB682393D1E900E3189350
:1051E0000B6A3F9F3B9D19934B6A1A931368FE68A5
:1051F0002094D5E9015BD7E9017C1B93209C53687F
:105200001FFA86FA002C00F06681A9B208EE903AE7
:105210001FFA8BF382B213FB01F31FFA8BF413FB1B
:1052200002F327910A460FFA8EF104FB02F209EE0F
:1052300010AA08EE101A1FFA80FA169914940AFBA5
:1052400002F2C2F38F0401EB82021FFA89F925945E
:105250001092621E03F003049BB21FFA88F01D93A4
:1052600009FB0AF3BDB200FB03F31FFA8CF7B6B2D9
:10527000289305FB07F306FB03F392B22493631E06
:1052800001329BB22B939300299301EBC2034FEAA7
:105290004A0B2A9300231F935B462195D3460F9711
:1052A00026960D901E949A46219B002B00F00481B7
:1052B000409B1793169B089300231C930F9B002B76
:1052C00073D01C9ABDF88C3002FB03F3BDF8882024
:1052D0009B1A279A11939A1809FB03F3159300233D
:1052E0000B920E9311990B9B994253DA0E9ABDF8CB
:1052F0004C3002FB03F3BDF848209B1A149A0A9322
:10530000D61802FB0AF30C93159B099388460A9C56
:10531000B44237DA0D9B434540F2E380002C80F223
:10532000EF80089D06EAE6772846013452460021C0
:1053300022F076FDA7425544F6DCA6421EDD099B0D
:10534000E7183A9B0BFB073706E0013422F068FDB3
:10535000A64255445F4411DDA145284652464FF010
:105360000001F2DD2946384618EE103A5A4601345B
:1053700002F0B8F8A64255445F44EDDC089B0C9A55
:1053800013440893099B4B4409930B9B08F10108B4
:105390009845BCD1109B089A934200F0B3800E9BB5
:1053A0000F9A013393420E939CDB1C9B219A01338D
:1053B00093421C9382DB169B089A93427CD0269BD7
:1053C000002B79D01B9A3C9CA2F1040E18EE902A77
:1053D000A2F10408179AD3184FF0000C08933E9BD3
:1053E0000BB153F80C30259A002A00F0B080299AAE
:1053F0001698A51854F8042B06682FFA82F14FEA84
:1054000032222FFA82F2C2EA2147C1EA024222FB8B
:1054100006334268083027FB0233AC42EAD12A9AAD
:105420001E9C002C00F0918095F90010108810FB54
:1054300001332B9959B195F901105088022C10FBBA
:10544000013304D0918895F9022011FB02331E9A92
:10545000AC1858F8042F5EF8040F22EAE27103FA40
:1054600001F100254FF08043C1FB0035DB0F002A1E
:1054700043EA45050DDC524201239340013B05EA16
:10548000030115414FEA630348BF01339942C8BF86
:105490000135189B199A2B449342B8BF13461A9AA8
:1054A0009342A8BF1346179A02F8013B089B179234
:1054B0009A420CF1040C92D13A9A28991F9B0A4403
:1054C0003A922499409A0A444092209A0133934296
:1054D0001F937FF4E9AE00202DB0BDEC048BBDE836
:1054E000F08F089D284601345246002122F098FC96
:1054F000B4425544F6D1089B0C9A1344089341E7F3
:10550000089D1CE7179B06933E9B05931D9B0493E8
:10551000189B01931B9B0E9C0093BDF9683003936D
:10552000BDF964300293013418EE903A19EE102A56
:1055300016993C980E9400F05BFC0F9B17909C42D0
:10554000169B0893FFF6CEAE2FE72C4681E7169AFE
:10555000254665E7D1E90132C06802FB00F003FB94
:1055600000F08000704700BF2DE9F04F83B00C6958
:105570000C9E0096DDE90D7BDDE90FA9DDE91168E0
:1055800001908C4615469E460CB94C690CB3736865
:10559000012B0DD1DEF80430012B09D17B68012BE2
:1055A00006D1B3689B0703D1DEF80030012B24D06D
:1055B000009B01980C932A4673466146CDE9116819
:1055C000CDE90FA9CDE90D7B03B0BDE8F04FFFF7A2
:1055D000F1BDDC68A407DAD18C68012CD7D1CC6886
:1055E000012CD4D1BC68012CD1D17C68012CCED146
:1055F00003B0BDE8F04FFFF79BBD009B01980C93F3
:105600002A4673466146CDE91168CDE90FA9CDE977
:105610000D7B03B0BDE8F04FFFF770BD8446084630
:105620001146DCF8102012B9DCF8142082B15A6857
:10563000012A0BD14268012A08D14A68012A05D102
:105640009B689B0702D10368012B14D0FFF782BF30
:10565000C2689207EBD1DCF80820012AE7D1DCF818
:105660000C20012AE3D18A68012AE0D14A68012A84
:10567000DDD1FFF79DBDFFF751BD00BF2DE9F04F14
:105680001D688DB09046DDE9166ADDE91A29DDF85E
:1056900060B01C9F55B30C46D9F80C30DAF80010F6
:1056A0000B95D4E9030C0693D8F804E00591CDF8E6
:1056B00020C0D8F80010A3680790CDF810E0D4E916
:1056C0000050CDE9023101903B46304659460095E5
:1056D0001A9201F0D5FA0B9ADAF80010D9F80C30CA
:1056E000013A0B920E441A9A1F44DAD100200DB0F1
:1056F000BDE8F08F00207047B0F800C0438803FB7E
:105700000CFC10B55FEA9C0E4468486826D004F192
:10571000100200F11003714612ED036A12ED027AD5
:1057200052ED017A52ED046A20EE066A20EE077A05
:1057300060EE277A66EE806A013903ED036A43ED75
:10574000046A03ED027A43ED017A02F1100203F1DB
:105750001003E1D104EB0E1400EB0E101CF0030C4F
:1057600017D0D4ED007A67EE807ABCF1010CC0ED61
:10577000007A0ED0D4ED017A67EE807ABCF1010F89
:10578000C0ED017A05D0D4ED027A27EE800A80EDD3
:10579000020A002010BD00BF2DE9F04FB0F800B0A4
:1057A000468845684C68BBF1010F4FEA960787B001
:1057B00006F003064FEA8B033ED15FB307F1FF39D2
:1057C0001FFA89F105F1200909EB011905F1100211
:1057D00004F10800214652F810CCC1F800C001EBDA
:1057E000030E52F80C8CCEF8008052F808ECC0F88A
:1057F00000E000EB030C10324A4552F814ECCCF8F0
:1058000000E001F1100100F11000E4D105EB0715F3
:1058100004EB071466B1013E2A682260B6B21C444C
:1058200036B16A682260012E23441CBFAA681A6040
:10583000002007B0BDE8F08F7A1E92B2711E88B2C8
:10584000511C120120320392421C920004924FEA32
:10585000CB024FEA0B1C02920A0101920CFB01F2EF
:10586000059000924FF0000A04EB8A092FB30299C9
:1058700009EB0100039905F1100205EB0108494607
:1058800052F810ECC1F800E052ED037A01EB030E80
:10589000CEED007A52F808ECC0F800E052ED017A43
:1058A000103200EB030E42456144CEED007A6044B5
:1058B000E6D1019A1544009A914486B12A68C9F844
:1058C0000020059A994442B16A68C9F80020022E66
:1058D00099441CBFAA68C9F80020049A15440AF12B
:1058E000010A1FFA8AFAD345BED1002007B0BDE8ED
:1058F000F08F00BFF0B54E1E0546B708F5EC017AF3
:1059000067D007F1010E14304FEA8E0E4FF0040CF1
:10591000002450ED046A10ED037AF4EEE67AF1EE1D
:1059200010FA48BFF0EE667AB4EEE77A48BFACF101
:10593000030450ED026AF1EE10FAC8BFF0EE477AA8
:10594000F4EEE76AC8BFACF1020410ED017AF1EEA3
:1059500010FAC8BFF0EE667AB4EEE77AC8BF0CF171
:10596000FF34F1EE10FAC8BF64460CF1040CC8BF56
:10597000F0EE477AF44500F11000CAD105EB0715A7
:1059800016F0030021D095ED007AB4EEE77AF1EE3F
:1059900010FAC4BFF0EE477A0C1A013815D095ED15
:1059A000017AF4EEC77AF1EE10FA44BFF0EE477ACE
:1059B0000C1A012809D095ED027AF4EEC77AF1EEBF
:1059C00010FA44BFF0EE477A3446C2ED007A1C600C
:1059D000F0BD3C46D4E700BF2DE9F04FA5B0DDE9AE
:1059E0002E046568A4680D94D2E901461596D66820
:1059F0004A681E920A680F9242681F92826810924B
:105A00008A681D931792CB680A6918924A6919929D
:105A1000002DC3F100021695119240F3FE801799F4
:105A2000484221900D98B2100028049206F0030518
:105A300040F3F3801493E3181293C2EB82739B003C
:105A4000019306FB00F3209393001B93309B03EB21
:105A500082031393159B03FB06F208920B4400226A
:105A60001A922293B0462F46119B149A002BC8BF5E
:105A70000022D3180E92159A02FB03F31C931F9A6F
:105A8000129B9342A8BF13460793179B0B93229B2D
:105A90000A93139B0593219B099300230C93019A6E
:105AA000059809990B9B02EB000A0A9A10980029A5
:105AB000C8BF00238242A8BF0246914607980E9AAB
:105AC000039382427FDA4B457DDA0B441C990692A0
:105AD0000B441B9908FB03131D99CB180293002359
:105AE000DDE901215118002B40F00D81424650465E
:105AF00022F06EF9DDE902CE0EF1010EF145C4444B
:105B000055D0019B0CEB0301049B002BD8BF5346DF
:105B10002DDD524651F8044B136866B25DB2B542B2
:105B2000B8BF354644F3072B43F3072618465E45B6
:105B3000B8BF5E4665F3070344F3074B40F30745E0
:105B40005D454FEA2060B8BF5D4666F30F23B0EBBA
:105B5000246F65F317434FEA246580F2CC8065F328
:105B60001F63614542F8043BD4D1059B6146002F79
:105B7000C2D091F9002093F900009042B8BF1A708A
:105B8000012FB9D091F9012093F901009042B8BFDB
:105B90005A70022FB0D091F9022093F902100EF141
:105BA000010E9142B8BF9A70F145C444A9D1029B3D
:105BB0000899069A0B440799029301329142069282
:105BC0004FF001038CD10F9A09990C9B1144099154
:105BD0000B99891A0B910A998A1A0A92059A4244DA
:105BE00005920D9A01339A420C937FF458AF1E9A96
:105BF00011991A9B114411911499891A14911299AF
:105C00008A1A12922099139A0A441392169A01330F
:105C10009A421A937FF428AF4646169A0D9B03FBCF
:105C200002F206FB02F2901000283ADD309B239C22
:105C3000DDE9185603EB80001F463B684FFA83FEF0
:105C4000AE4543F3072CB8BFAE464FFA8EFEAC45C7
:105C500043F30741B8BFAC46B6454FFA8CFCA8BF2A
:105C6000B646A9424FEA2363B8BF2946B445A8BF48
:105C7000B446AB4249B2B8BF2B465BB2B1426EF3F9
:105C80000704A8BF31466CF30F24B342A8BF3346C4
:105C900061F3174463F31F6447F8044B8742CCD188
:105CA000309712F0030222D0309B189993F90030FC
:105CB0001998309C8B42B8BF0B468342A8BF03465D
:105CC000013A237013D094F901308B42B8BF0B46D0
:105CD0008342A8BF0346012A637008D094F90230BA
:105CE0009942B8BF19468842A8BF0846A070002054
:105CF00025B0BDE8F08F614542F8043B7FF40AAF60
:105D0000059B614633E7DDE902CEFDE6F0B54E1EA8
:105D10000546B708F5EC017A67D007F1010E14309B
:105D20004FEA8E0E4FF0040C002450ED046A10ED83
:105D3000037AF4EEE67AF1EE10FAC8BFF0EE667A76
:105D4000B4EEE77AC8BFACF1030450ED026AF1EE9D
:105D500010FA48BFF0EE477AF4EEE76A48BFACF1BC
:105D6000020410ED017AF1EE10FA48BFF0EE667A07
:105D7000B4EEE77A48BF0CF1FF34F1EE10FA48BFF9
:105D800064460CF1040C48BFF0EE477AF44500F18C
:105D90001000CAD105EB071516F0030021D095EDD0
:105DA000007AB4EEE77AF1EE10FA44BFF0EE477AEB
:105DB0000C1A013815D095ED017AF4EEC77AF1EEA0
:105DC00010FAC4BFF0EE477A0C1A012809D095EDFD
:105DD000027AF4EEC77AF1EE10FAC4BFF0EE477A19
:105DE0003446C2ED007A1C60F0BD3C46D4E700BFEB
:105DF0002DE9F04F99B08246289CBDF9900005909E
:105E0000BDF994001692144406905208BDF898000B
:105E10000D9114930B901594179200F0A1818508B1
:105E20000E461F460E956B1E00F0030501EB400069
:105E300027990A95013A92B2103101EBC2020F92F2
:105E40006A1E92B21392279A109008320992289AE9
:105E500002320792A21C0892229A08329BB2029246
:105E60003A460133083203929A000C9206EBC302C1
:105E700000EBC30312921193099B0E9A53E902544B
:105E80000B9B53440493002A00F026820C9A109F27
:105E90000D9E009352440192A1462A4600985AF85A
:105EA000041B50F8043B2FFA81FB2FFA83F8009073
:105EB000D6F800E0D7F800C04FEA31214FEA33238B
:105EC0002FFA81F12FFA83F3C1EA2B40CBEA01418B
:105ED000C3EA284BC8EA034321FB0E5521FB0C22E1
:105EE00023FB0E4423FB0C937168D7F8049008360B
:105EF000083720FB015520FB09222BFB01442BFB1B
:105F00000939019B9A45C9D1049B0C990B44049310
:105F1000DDE911310A9800283ED0019E049896F9D7
:105F2000007090F90000B1F9006016FB075516FBF0
:105F30000044B3F9006016FB0722139F16FB00997B
:105F400037B3019E049896F9017090F90100B1F9F8
:105F5000026016FB004416FB0755B3F9026016FBFE
:105F600000990A98022816FB072211D00498B1F96B
:105F7000041090F90200B3F90430019E11FB0044B3
:105F800013FB009996F9020011FB005513FB002248
:105F9000019B0A990B440193039B53F8080C029B45
:105FA00020EAE07153F8083C8D4000264FF0804114
:105FB000C5FB0316C90F002841EA46060DDC404226
:105FC00001238340013B06EA030106414FEA6303D4
:105FD00048BF01339942C8BF0136239B1E44059B2D
:105FE0009E42B8BF1E46069B9E42A8BF1E46079B08
:105FF00003F8026C039B53F8080C029B20EAE07143
:1060000053F8083C8A4000254FF08041C2FB03153D
:10601000C90F002841EA45050DDC404201238340B9
:10602000013B05EA030205414FEA630348BF013320
:106030009A42C8BF0135239B1D44059B9D42B8BFB2
:106040001D46069B9D42A8BF1D46089B03F8025CA7
:10605000039B53F8041C029B21EAE17253F8043CB1
:10606000944000204FF08042C4FB0320D20F00294F
:1060700042EA40000DDC494201238B40013B00EA2B
:10608000030208414FEA630348BF01339A42C8BF85
:106090000130239B1844059B9842B8BF1846069BC5
:1060A0009842A8BF1846079B03F8010C039B53F8BE
:1060B000041C029B21EAE17053F8043C09FA00F049
:1060C0004FF080420024C0FB0324D20F002942EA93
:1060D00044040DDC494201238B40013B04EA0302E6
:1060E0000C414FEA630348BF01339A42C8BF0134F1
:1060F000239B089A01990B981C44059B9C42B8BFAE
:106100001C46069B9C42A8BF1C4602F8014C02326A
:106110000892029A099B08320292039A01440832BB
:106120008A46039207990F9A083302319A420993DB
:1061300007917FF4A1AE179B149A02EBC30214924D
:10614000229A02EBC3022292289A02EB430228927F
:10615000159A02EB43021592279A02EBC303279389
:10616000169BDB0740F1B280279B0D9C19680B9BA7
:106170005FEA930804EB430E00F0B5800AEB880C4D
:1061800075460A465AF8040B26682FFA80F34FEA40
:1061900030202FFA80F0C0EA2347C3EA004323FBF4
:1061A0000611286823FB002360686A6808340835F4
:1061B00027FB001127FB0232E245E3D10D9B03EBE5
:1061C000C8030D930EEBC80E0B9B13F0030320D0F6
:1061D0000D9D9CF900002C88013B14FB0011BEF8BA
:1061E00000409BB214FB00229BB19CF901006C881B
:1061F00014FB0011BEF80240012B14FB002208D052
:106200009CF90230A88810FB0311BEF8040010FBB3
:106210000322149B1868229B20EAE0741B6801FA91
:1062200004F400254FF08041C4FB0315CB0F002878
:1062300043EA45030DDC404201218140013903EA74
:10624000010403414FEA610148BF01318C42C8BFDC
:106250000133239928980B4405998B42B8BF0B460C
:1062600006998B42A8BF0B4600F8013B149B1C68A3
:10627000229B1E6824EAE4739A404FF08041002379
:10628000C2FB06131D46002C4FEAD17343EA4503B7
:106290000DDC64420122A240013A03EA02012341DB
:1062A0004FEA620248BF01329142C8BF0133239ACC
:1062B00028901344059A9A42B8BF1A461346069A84
:1062C0009A42A8BF1A461346159A13701698289B2F
:1062D000184419B0BDE8F08F109B0D99CDF804A0BB
:1062E000A1462A4616E6D4460A466DE72DE9F04F48
:1062F0009FB0CDE9132316902B98DDF8B0A01C9128
:10630000421E002A199240F3FC8104462A980C91FF
:106310001D46AAF11003421023F00F0303F11000F1
:1063200004FB02F305EB43041A94002411942B9C04
:106330001892631C2A461A441B926FF00302A2EBC8
:106340000A021D92AAF10F020D922A9A099002F0F8
:1063500001020AF1FF3017924FEA4A0215920A1819
:106360001292289A109004320592299A04320492CB
:1063700062000E92D446149B119ABCF1000F134494
:10638000069340F371840C9B129D0022013B294629
:10639000144613F9010F044411F9010F9D42024400
:1063A000F7D12D9B04FB03F30A932D9B02FB03F310
:1063B0000B93139A5AB111990B98131D53F821306E
:1063C000184452F821300A9A0B901A440A92189BEA
:1063D000002B00F0478411991B9A07930A440CF193
:1063E0000403099908920C9A00930CF108030A44DB
:1063F0000193169E0F92ACF1040302930D9B002BA8
:1064000040F33782099B0A9DF3180393DDE90B37AC
:106410002A461946D7F800E0D6F8008057F80C0055
:106420002FFA8EF92FFA88F42FFA9EFE2FFA98F899
:1064300024FB09552FFA80FA28FB0E552FFA90F00D
:1064400024FB0A3328FB003356F80C402FFA84F85B
:106450002FFA94F428FB092928FB0A1124FB0E9932
:10646000D7F804E024FB0011009AD6F80480BA584B
:106470002FFA8EFA2FFA88FB2FFA9EFE2FFA98F841
:106480002BFB0A552FFA82F028FB0E552FFA92F4B7
:106490002BFB003328FB0438009AB2582FFA82F302
:1064A0002FFA92F223FB0A9923FB001122FB0E998B
:1064B000D7F808E022FB04120199B36878582FFA44
:1064C0008EFA2FFA83FB2FFA9EFE2FFA93F32BFB03
:1064D0000A552FFA80F123FB0E552FFA90F42BFB6F
:1064E000018823FB0488019BF0582FFA80F32FFAD0
:1064F00090F023FB0A9923FB012120FB0E9EFA68F2
:10650000103720FB04100299F36879582FFA82F9AA
:1065100010362FFA83FA2FFA92F22FFA93F32AFB0E
:1065200009552FFA81FB23FB02552FFA91F42AFB20
:106530000B8823FB0483029971582FFA81F82FFAF4
:1065400091F128FB09EE28FB0B0021FB02E221FB65
:106550000401039886427FF45DAF0F98DDF8249024
:10656000E1451EDA109C00EB0408039C0138A8EBFF
:106570000908013C10F901EF14F9016F10F90C70D2
:1065800016FB0E5516FB073314F90C6080451EFBF5
:10659000062217FB0611EDD10398ACEB090948441C
:1065A00003900498059C50F8040C54F8046C20EAFD
:1065B000E074A5404FF080474FF00009C5FB067915
:1065C000FF0F002847EA490940F32481B9F1000F81
:1065D00002FA04F4C0F241814FF080400025C6FB6E
:1065E0000405C20F4FF0000B42EA4502DA46049858
:1065F0000568059825EAE5740668A3404FF08040D9
:106600000027C3FB0607C00F002D40EA470040F3F8
:10661000E480A1404FF080450023C6FB0153EC0FFE
:10662000002544EA43042F46002AB8BF0AF1010AB4
:10663000DA45B8BF0132002CB8BF01372E9B309924
:10664000039EAF42B8BF01341A44994418441C4415
:106650002F9B9945B8BF99469842B8BF18469A42B1
:10666000B8BF1A469C42B8BF1C46309B9945A8BF8C
:1066700099468842A8BF08468A42069BA8BF0A4698
:10668000089983F80090587001F8012C309A9442D0
:10669000A8BF14460C700A460E990B440693531873
:1066A0000893079B013B664407937FF4A7AE1A9BB0
:1066B000119A13440693179B002B40F0E3800C9A29
:1066C0001599119B0A440C92129A0A441292059A47
:1066D00008320592049A08320492199A02339342BE
:1066E0001193FFF648AE2B9B023B5B0803FB0112A4
:1066F0001C991144149A1C91013302EB4303E246A6
:1067000014932B9BDB0764D52A9B002B61DD2B9B0D
:10671000169A03F18048289B08F1FF3803EB88059F
:10672000299B03EB8807139B03EB8808CDE90078CE
:106730000024DDF850802D9F4FF0804CA6464FF08E
:106740000109139B002B00F09482019B1968BAF198
:10675000000F0CDD1C9B02EB0A0B581E12F9013BCB
:1067600010F9016F3B445A4506FB0311F6D1009B1B
:106770001E682B6826EAE67001FA00F0F3466146CF
:10678000C0FB031BC90F002E41EA4B0B0FDC764206
:1067900009FA06F3013B0BEA03015BFA06FB4FEA39
:1067A000630348BF01339942C8BF0BF1010B2E9B15
:1067B0002F995B448B42B8BF0B4630998B42A8BFE0
:1067C0000B4688F800302B9B98442A9B0134A34247
:1067D000B7D100201FB0BDE8F08F6B42A14001256A
:1067E0004FF080444FF0000E9D40C6FB014E013D2E
:1067F000E40F00EA05086F10184144EA4E0405EA68
:10680000040544FA03F454BF3B467B1C9845C8BFBB
:10681000013009E74042012502FA04F44FF0000E6E
:106820004FF0804205FA00F7C6FB042E013FD20F5D
:1068300009EA07054FEA670A59FA00F942EA4E02E7
:1068400007EA020B42FA00F254BF50460AF1010077
:106850008542C8BF09F10109C9E64FF08042002016
:10686000C6FB0420D20F4FF0000B42EA4002DA468A
:10687000BDE6DDE90B300A9D039619462A464FF026
:1068800000096DE60D9B002B40F3F581099A129BE0
:106890001D9806EB0209DDE90A52053350F8038022
:1068A00053F8044C31682FFA88FBC7182FFA81FE81
:1068B0002FFA84FA2FFA98F82FFA91F12FFA94F41C
:1068C0002EFB0B5521FB08552EFB0A2221FB042130
:1068D000D7F804801C6872682FFA88FB2FFA82FAB6
:1068E0002FFA84FE2FFA98F82FFA92F22FFA94F4E6
:1068F0002AFB0B5522FB08582AFB0E1122FB04121F
:10690000D7F808E05C68B1682FFA8EFB2FFA81FA9D
:106910002FFA84F52FFA9EFE2FFA91F12FFA94F4B4
:106920002AFB0B8821FB0E8E2AFB052221FB042467
:10693000FD68F1689F682FFA85FA10362FFA81F208
:106940002FFA87F82FFA95F52FFA91F12FFA97F78A
:1069500022FB0AEE21FB05E522FB084221FB072270
:106960004E4503F1100399D10C9B0998CDE90A52C9
:106970001918844540F31C8199F9003091F90020E1
:106980000A9C0B9D13FB024411F90C200A9413FB83
:106990000255431C9C450B9540F30A8101EB0C0307
:1069A00093F9012099F9013013FB025591F9012067
:1069B0000B9513FB0244831C9C450A9401F10202CF
:1069C00040F3F68099F9023012F90C2012FB0355BE
:1069D00091F902200B9512FB0344C31C9C450A94B9
:1069E00001F1030240F3E48099F9033012F90C201D
:1069F00012FB035591F903200B9512FB0344031D71
:106A00009C450A9401F1040240F3D28099F90430C4
:106A100012F90C2012FB035591F904200B9512FB7F
:106A20000344431D9C450A9401F1050240F3C080D4
:106A300099F9053012F90C2012FB035591F9052044
:106A40000B9512FB0344831D9C450A9401F1060239
:106A500040F3AE8099F9063012F90C2012FB035571
:106A600091F906200B9512FB0344C31D9C450A9423
:106A700001F1070240F39C8099F9073012F90C20CC
:106A800012FB035591F907200B9512FB034400F10B
:106A900008039C450A9401F1080240F3898099F9A2
:106AA000083012F90C2012FB035591F908200B95C0
:106AB00012FB034400F109039C450A9401F1090209
:106AC00076DD99F9093012F90C2012FB035591F982
:106AD00009200B9512FB034400F10A039C450A941C
:106AE00001F10A0264DD99F90A3012F90C2012FB57
:106AF000035591F90A200B9512FB034400F10B0397
:106B00009C450A9401F10B0252DD99F90B3012F900
:106B10000C2012FB035591F90B200B9512FB03443B
:106B200000F10C039C450A9401F10C0240DD99F937
:106B30000C3012F90C2012FB035591F90C200B9527
:106B400012FB034400F10D039C450A9401F10D0270
:106B50002EDD99F90D3012F90C2012FB035591F935
:106B60000D200B9512FB034400F10E039C450A9483
:106B700001F10E021CDD12F90C2099F90E3012FB06
:106B8000035591F90E200B950F3012FB03468445F7
:106B90000A9601F10F040BDD99F90F3091F90F20DE
:106BA00013FB02620A9214F90C2013FB02530B939D
:106BB000049B0A9953F8042C059B22EAE274A14035
:106BC00053F8043C0C4600204FF08041C4FB0310F6
:106BD000C90F002A41EA40050DDC524201239340CF
:106BE000013B05EA030115414FEA630348BF013346
:106BF0009942C8BF0135049B0B9A1868059B20EA8F
:106C0000E0718A401B68114600244FF08042C1FBAE
:106C10000324D20F002842EA44040DDC4042012341
:106C20008340013B04EA030204414FEA630348BF87
:106C300001339A42C8BF01342E9B309A59191C4423
:106C40002F9B9942B8BF19469C42B8BF1C46309B47
:106C50009942A8BF1946069B9442A8BF14461970D2
:106C60005C702CE5169E26E50023CDE90A33FFF77C
:106C7000A0BB19466BE50C99B146002079E600BF30
:106C80002DE9F04F93B0DDE921A41F460F931C9B23
:106C900002920FFA83FE1D9B0690012C1AB20E91F0
:106CA000CEEA0E4EC2EA024240F366822646209C9D
:106CB000019164420123A3400C945C1EAAF11003CD
:106CC000B51E23F00F0303F1100625F001033B442A
:106CD00004330D94079363104FEA4A040594209CF3
:106CE0000B9324EAE4746FF0030904943044BC1C51
:106CF0000AF10401013311950896A9EB0A090394DE
:106D000009900A91109394460298002800F0C483D9
:106D1000416850F8083B0290BAF10F0F019840F318
:106D2000C2830A9C069ECDF884A06246DDF824C08A
:106D3000051959F805B0346855F8040C4FEA3B2A98
:106D40004FEA342809EB050722FA8BFB22FA8AFA6C
:106D50002EFA84F42EFA88F824FB0B3322FA80FBF7
:106D600028FB0A33D7F804A04FEA302022FA80F03B
:106D700024FB0B1428FB0044706822FA8AF84FEABF
:106D80003A2B4FEA3021D5F800A022FA8BFB2EFADD
:106D900080F02EFA81F120FB083322FA8AF821FBD9
:106DA0000B3BBB684FEA3A2A22FA8AFA20FB0848D2
:106DB00021FB0A88B06869684FEA332A4FEA302419
:106DC00022FA83F322FA8AFA2EFA80F02EFA84F459
:106DD00020FB03BB22FA81F324FB0ABBD7F80CA0EB
:106DE0004FEA312122FA81F120FB038824FB018440
:106DF000F768D5F808804FEA37214FEA3A23103672
:106E000022FA8AFA22FA83F32EFA87F72EFA81F011
:106E100027FB0ABB22FA88FA20FB03B34FEA382883
:106E200022FA88F827FB0A4420FB0841B44505F103
:106E300010057FF47EAF0198089CDDF884A094468D
:106E40002044A24540F34B811C9F96F900501D9AA7
:106E50003D4490F90070174405FB073310F90A70A0
:106E6000174405FB0711651CAA4540F3388100EB68
:106E70000A0595F9017096F9015017441C9A1544BA
:106E800005FB07111D9A90F90170174405FB0733A4
:106E9000A51CAA4500F1020740F3218117F90A70E9
:106EA00096F9025017441C9A154405FB07111D9AC8
:106EB00090F90270174405FB0733E51CAA4500F161
:106EC000030740F30C8117F90A7096F90350174431
:106ED0001C9A154405FB07111D9A90F9037017447D
:106EE00005FB0733251DAA4500F1040740F3F78091
:106EF00017F90A7096F9045017441C9A154405FBBB
:106F000007111D9A90F90470174405FB0733651D9E
:106F1000AA4500F1050740F3E28017F90A7096F9D7
:106F2000055017441C9A154405FB07111D9A90F94A
:106F30000570174405FB0733A51DAA4500F1060798
:106F400040F3CD8017F90A7096F9065017441C9A41
:106F5000154405FB07111D9A90F90670174405FBAF
:106F60000733E51DAA4500F1070740F3B88017F97C
:106F70000A7096F9075017441C9A154405FB07112F
:106F80001D9A90F90770174405FB073304F10805B3
:106F9000AA4500F1080740F3A28017F90A7096F994
:106FA000085017441C9A154405FB07111D9A90F9C7
:106FB0000870174405FB073304F10905AA4500F1E1
:106FC000090740F38C8017F90A7096F909501744A5
:106FD0001C9A154405FB07111D9A90F90970174476
:106FE00005FB073304F10A05AA4500F10A0776DD1F
:106FF00017F90A7096F90A5017441C9A154405FBB4
:1070000007111D9A90F90A70174405FB073304F124
:107010000B05AA4500F10B0761DD17F90A7096F917
:107020000B5017441C9A154405FB07111D9A90F943
:107030000B70174405FB073304F10C05AA4500F15A
:107040000C074CDD17F90A7096F90C5017441C9A7E
:10705000154405FB07111D9A90F90C70174405FBA8
:10706000073304F10D05AA4500F10D0737DD17F9C7
:107070000A7096F90D5017441C9A154405FB071128
:107080001D9A90F90D70174405FB073304F10E05A6
:10709000AA4500F10E0722DD17F90A7096F90E5085
:1070A00017441C9A154405FB07111D9A90F90E70A0
:1070B0000F341744A24505FB073300F10F050EDD21
:1070C0001C9A96F90F4090F90F0015F90A501444D4
:1070D0001D9A1044154404FB003304FB0511049D64
:1070E0001F9EAB404FF080400024C3FB0604C30F3B
:1070F0002098002843EA440340F3AB811F9AA9403B
:107100004FF080400024C2FB0104002B4FEAD071F5
:10711000C0F2CC8151EA440100F1BA811E980344C7
:10712000014423988342B8BF03468142B8BF014659
:1071300024988342A8BF0346039800F8023C249B8E
:107140009942A8BF194600F8011C831C01990598B3
:1071500003930144019107998B427FF4D5AD119BB4
:107160005B0803FB00010E9808440F990E90013351
:1071700001EB430362460F93229BDB0740F16581DD
:10718000029B03B11B68BAF10F0F40F3A681AAF16D
:10719000100806990E984FEA181808F101084FEAEE
:1071A000081901EB081607680C684FEA372522FA20
:1071B00087F722FA85FC4FEA34252EFA84F42EFA5A
:1071C00085F524FB073325FB0C3547684B684FEAF0
:1071D000372422FA87F722FA84FC4FEA33242EFA66
:1071E00083F32EFA84F423FB075324FB0C348768C3
:1071F0008B684FEA372522FA87F722FA85FC4FEA97
:1072000033252EFA83F32EFA85F523FB074325FB5E
:107210000C35D0F80CC0CB684FEA3C274FEA33243A
:107220001030103122FA8CFC22FA87F72EFA83F301
:107230002EFA84F423FB0C5324FB0733B142B2D162
:107240000E9A4A440E924FEA0818C24540F3D38082
:107250001C9996F900200E981D9C0A4490F9001084
:10726000214401FB023308F10102924540F3C3803F
:107270001C9996F901200A4490F90110214401FB60
:10728000023308F10202924540F3B5801C9996F949
:1072900002200A4490F90210214401FB023308F154
:1072A0000302924540F3A7801C9996F903200A44F3
:1072B00090F90310214401FB023308F104029245C6
:1072C00040F399801C9996F904200A4490F904101F
:1072D000214401FB023308F10502924540F38B8003
:1072E0001C9996F905200A4490F90510214401FBE8
:1072F000023308F1060292457DDD1C9996F90620BD
:107300000A4490F90610214401FB023308F10702F8
:10731000924570DD1C9996F907200A4490F90710F0
:10732000214401FB023308F10802924563DD1C99F8
:1073300096F908200A4490F90810214401FB023311
:1073400008F10902924556DD1C9996F909200A4474
:1073500090F90910214401FB023308F10A02924519
:1073600049DD1C9996F90A200A4490F90A10214433
:1073700001FB023308F10B0292453CDD1C9996F9A2
:107380000B200A4490F90B10214401FB023308F151
:107390000C0292452FDD1C9996F90C200A4490F9B5
:1073A0000C10214401FB023308F10D02924522DD4D
:1073B0001C9996F90D200A4490F90D10214401FB07
:1073C000023308F10E02924515DD1C9996F90E2044
:1073D0000A4490F90E1008F10F082144C24501FB40
:1073E000023308DD90F90F2096F90F101C98224403
:1073F000014401FB0233209A1F9822EAE272934073
:107400004FF080410022C3FB0012CB0F43EA42023F
:10741000209B002B0DDC5B4201219940013902EADF
:1074200001001A414FEA610148BF01318842C8BFDB
:1074300001321E9B1344239A9342B8BF1346249AE9
:107440009342A8BF13460F9A1370002013B0BDE8F3
:10745000F08F0D9A0C9E03EA020033412BD41F9F3C
:1074600001FA05F500244FF08041C7FB0514C90F50
:1074700041EA44010B9D02EA01043141A8420B9804
:10748000C8BF0133002905DBA042B8BF013145E682
:10749000002420460130F7E7BAF10F0F03460146FA
:1074A00001983FF73EAC069E0024CAE441EA44013D
:1074B00000242046E6E71F9A01FA05F44FF08041C8
:1074C0000025C2FB0415C90F0D9A41EA450102EAE5
:1074D00001040C9A109D1141D0E7069E4FF0000860
:1074E000B3E600BF2DE9F041C3EA03455FEA920825
:1074F0002DD000EB88070C4650F804CB25FA8CFE03
:107500000834B8424FEA3C2C25FA8CFCCCEA2E46D3
:10751000CEEA0C4C44F8046C44F808CCECD101EBF6
:10752000C80112F0030210D097F900009BB2184472
:10753000013A088009D097F90100012A18444880CF
:1075400003D097F9022013448B80BDE8F0810746F1
:10755000E7E700BFD1ED007A91ED017AB0F800C005
:10756000406937EE077A77EEA77AF6EE003A77EEC3
:10757000876A77EEC77A0CF1FF3C26EEA37A67EEB6
:10758000A37A01EBCC0382ED007AC2ED017A1030D0
:1075900010321031083B11ED024A93ED027AD3ED1F
:1075A000034A51ED017A50ED026A10ED016A77EE5F
:1075B000445A34EEA75A37EE047A77EEE47A26EE90
:1075C000A54A66EE255A37EE047A26EE056A77EE6E
:1075D000A57A66EE856A37EE067A77EEE67A27EECA
:1075E000237A67EEA37ABCF1010C02ED027A42ED38
:1075F000017A00F1080002F1080201F10801A3F18B
:107600000803C8D1704700BFD1ED007AD1ED016AFF
:1076100037EEA67A77EEE67A10B4F6EE003A0488F2
:10762000406927EE237A67EEA37A013C82ED007A67
:10763000C2ED017ADCB3E300083B0B44103010329A
:10764000103111ED024A93ED027AD3ED034A51ED68
:10765000017A50ED026A10ED016A74EE475A34EE79
:10766000A75A37EE047A77EEE47A26EEA54A66EE5C
:10767000255A37EE447A26EE056A77EEA57A66EE4D
:10768000856A37EE467A77EEE67A27EE237A67EE5A
:10769000A37A013C02ED027A42ED017A00F1080082
:1076A00002F1080201F10801A3F10803C9D15DF854
:1076B000044B70472DE9F041058A6D0805800446AA
:1076C00016461D464BB1FFF79FFF2A46314620461E
:1076D0000123BDE8F041FDF7F1B90F461A46012339
:1076E000FDF7ECF9324639462046BDE8F041FFF798
:1076F00031BF00BF00B55FEA910EDFED307A83B095
:1077000021D000F11003F44613ED047A53ED036A1F
:1077100027EE076A66EEA66A13ED027A36EE276A4E
:1077200027EE077A53ED017A76EE866A67EEA77A3E
:1077300037EE267ABCF1010C77EE877A03F110035D
:10774000E2D100EB0E1011F0030315D090ED007A9A
:1077500027EE077A013B77EE877A0DD090ED017A1C
:1077600027EE077A012B77EE877A05D090ED027A23
:1077700027EE077A77EE877A07EE101AB8EE477A87
:10778000002387EE870AB5EEC00AF1EE10FA0BDB94
:10779000B5EE400AF1EE10FA08D4F1EEC07AC2ED6F
:1077A000007A03B05DF804FB1360FAE701921EF063
:1077B000B3F8019AF0EE407AF1E700BF0000000054
:1077C0002DE9F04F9FB0CDE9030201930B1E1D93ED
:1077D00040F37684531EC3180593DFF87CE300233F
:1077E0001C93039B049993F900200292012940F312
:1077F0008384059813F9011F8A42B8BF0A46834261
:10780000F8D10292039B03F1FF3900230693019BF9
:10781000DB0F149387E0C849C0FB0123002B04DA77
:107820006FF00041521843F10003D20F42EA4302C5
:1078300002F1E2424FF080430021C04E139CA2F5BA
:107840002522A2F26C7218460F46C2FB06071440AE
:10785000C00F0F9A099E40EA470002EA0008B84F9D
:1078600088EA04041A460846C4FB0720D20F42EAFD
:1078700040020E98B34F00EA020C26408CEA06063E
:107880001A460C46C6FB07241098D20F42EA44025F
:1078900015403040AC4E129C68401A460D46C0FB65
:1078A0000625D20F0D9E42EA450216400440744060
:1078B000A64E0B981A460D46C4FB0625D20F42EA87
:1078C000450220400BEA020BA14D0A9C8BEA000006
:1078D0001A460E46C0FB05260440D20F089842EA1D
:1078E000460200EA020A0C9A8AEA040404EA020A3E
:1078F000F222C4FB0231DB0F119A43EA41031A4022
:1079000082EA0A0A4FEA2A331AF4006F18BF0133D9
:10791000069A1A440692009B039A02339B1A049A11
:107920009A4240F31B81029ACDF8009019F9013F69
:107930009B1A299A9A42EEDC289A019C9340149A49
:10794000B2EBD37F0BBF4FF08042724600214FF065
:10795000FF31C4FB03210029084604DA6FF000411F
:10796000521840F10000D10F019A9A4241EA4001B9
:1079700000F0B98041F07F4C4FEA4C10ACEB010CA9
:10798000CCF3006808F1FF3200F180504FF08043E3
:107990000024CCF3C066C0FB00341392721E129216
:1079A000002C4CF38072CCF3807A119204DA6FF0E1
:1079B0000047DB1944F10004DB0F43EA4403A3FB57
:1079C0000325E41712F1804203FB04F745EB47055A
:1079D000002D079304DA6FF00047D21945F1000536
:1079E000D20F42EA4502C8F100050F9575420D9588
:1079F0000AF1FF35CCF3406600FB04F40C95C51783
:107A000003FB0544013ECCF38065CCF3007B099673
:107A10006E1ECCF3407A10960BF1FF364CF34067A4
:107A200002F003080B9692100AF1FF360E974FEA08
:107A3000D37C0A96A0FB0373CAF10006002A2344F4
:107A4000C5F100054FEAD074CBF1000B089647DB77
:107A50004FF0010AC245B8BF013264450BBF4FF079
:107A6000804474464FF0000C4FF0FF3CE41943EBA8
:107A70000C03002B04DA6FF00047E41943F1000314
:107A8000E40F44EA43042244002A324FABBF4FF0D4
:107A90008043734600244FF0FF34C2FB0734002CB0
:107AA00004DA6FF000429B1844F10004079ADB0FE0
:107AB00043EA44031A441346521002D4DE0748BF77
:107AC000013210440028ABBF4FF0804272460023C1
:107AD0004FF0FF3300297FF49EAE4FF4002317E7E9
:107AE0004FF0020AB6E7B2F1004F00F0268341F0F2
:107AF0007F4C4FEA4C10ACEB010CCCF3006808F162
:107B0000FF3200F180504FF080430024CCF3C06678
:107B1000C0FB00341392721E1292002C4CF3807240
:107B2000CCF3807A1192BFF647AF6FF000429B18FA
:107B300044F1000440E700BF94A8F5707BBEAF633A
:107B4000F2CBA24D6CAC162FA4AA5211B72A580240
:107B500011FE0A00ABAAAA2A010000C0069A002A58
:107B600000F04A83B2FA82F302FA03F101F1004114
:107B7000C3F12303149311F100434FEAE17141F182
:107B800000015B0843EAC1736C4A5842491002FB8A
:107B90000104A3FB022012EB0E02204460F100005E
:107BA000002804DA6FF00044121940F10000D20FEF
:107BB00042EA400202F15A32D01702FB01F403FB01
:107BC0000044A2FB035015F1804544EB0000ED0F8B
:107BD00045EA4005C5F10055002D82FB050480F201
:107BE000978210EB0E0064F10004002C04DA6FF0B1
:107BF0000045401944F10004C00F40EA440012EB74
:107C0000800240F1FB82012675464FF0FF3702FBF0
:107C100001F0D41703FB0404A2FB030C40196444D5
:107C200044EB0707002F04DA6FF00044001947F116
:107C30000007C00F40EA4700C0F10050C40FB44233
:107C40000BBF4FF08044744600254FF0FF35C2FB58
:107C50000045002D04DA6FF00040241845F10005BE
:107C6000E40F44EA4504B4F1005FC0F22C8202F153
:107C70000042013A4FF08044002502FB01F1D01789
:107C800003FB0011A2FB03361B19314441EB050530
:107C9000002D04DA6FF000415B1845F10005DB0FA1
:107CA00043EA4503C3F1005371464FF0FF3403FB31
:107CB00000F0DD1702FB0500A3FB02355B1828442A
:107CC00040EB0404002C04DA6FF000415B1844F12F
:107CD0000004DB0F43EA4403B3F1005FC0F2FC8110
:107CE0006FF000431A44B2F1804FA8BF1393C0F263
:107CF0009B82049B002B40F3D281139BDDF8A8B03C
:107D0000002BB9BF0E4A4FF0FF334FF080420023E3
:107D1000CDE91723149A01239340013B16935B107E
:107D20001A9301331B93039B03F1FF3A019BCDF898
:107D300000A0DB0F1993DA4679E100BFC4C3C3C3C7
:107D4000010000C0289A019C9340199AB2EBD37F9E
:107D50000BBF00204FF0FF304FF0804272460146CB
:107D6000C4FB0321002904DA6FF00040121841F12E
:107D70000001D00F019A9A4240EA410000F06B8165
:107D800040F07F435A011B1AC3F38071C3F30068AC
:107D9000C3F34069159108F1FF31C3F3806C129170
:107DA00009F1FF31C3F3C06711910CF1FF3102F10A
:107DB000805B00244FF080421091791ECBFB0B2496
:107DC0000F91C3F300710691002C43F300710E91E3
:107DD00004DA6FF00041521844F10004D20F42EA75
:107DE0004402E41702FB04F10E46A2FB021511F156
:107DF000804145EB4605002D0D9204DA6FF00046F8
:107E0000891945F10005C90F41EA4501069D013D6B
:107E10000B95CCF10005C3F34073B0FA80F00895E0
:107E20007D425E1E40090BFB04F407954FEAEB759B
:107E300002FB05440A964542159E013825F000458F
:107E4000099001F0030089100C9506F1FF3CD50F55
:107E50007642ABFB022700292744C9F10009C8F18B
:107E600000084FEADB74C3F100030696C0F2F1800C
:107E700001268642B8BF0131AC420BBF4FF08040B3
:107E8000704600244FF0FF34821847EB0404002CA6
:107E900004DA6FF00040121844F10004D20F42EAF5
:107EA000440211440029B34CABBF4FF080427246EC
:107EB00000204FF0FF30C1FB0420002804DA6FF0EF
:107EC0000041521840F100000D99D20F42EA4002E1
:107ED00011440A46491002D4D40748BF013159441D
:107EE0000029A54CABBF4FF08042724600204FF0F6
:107EF000FF30C1FB0420002804DA6FF00041521863
:107F000040F10000D20F42EA400202F1E2424FF09B
:107F100080460021994F129CA2F52522A2F26C7294
:107F200030460D46C2FB0705C00F40EA4500944F9E
:107F3000144008EA000884EA080432460D46C4FBEF
:107F4000072511988F4FD20F42EA4502204009EAD7
:107F5000020980EA090032460D46109CC0FB072545
:107F60000440D20F089842EA45021040864D0F9A0D
:107F7000444037460846C4FB0570FF0F47EA4007F8
:107F80000798824D384022400746574030460C46FD
:107F9000C7FB0504C00F40EA44000B9A0E9C3A4010
:107FA00004400A9862407A4C02EA000B0D463046C3
:107FB000C2FB0405C00F40EA450003408BEA030BF7
:107FC000F223CBFB0361F60F069B09980C9D46EA52
:107FD000410633400BEA0C0C8CEA0306DDE917324C
:107FE000139930404540C5FB0132002A04DA6FF096
:107FF00000415B1842F10002DB0F43EA420314998F
:10800000169A1A400B411ED41A99914200DA013394
:10801000803B13F17F0F19DB7E2B3EDC5BB28AF8CD
:108020000030059B009A93420AF1010A37D0009A6A
:1080300012F9013F0092029A9B1A299A9A427FF7FD
:1080400081AE8023EBE71B999142E0DB6FF07F0369
:10805000E5E702260DE7B2F1004F7FF491AE002371
:108060004FF0FF364B490D91CDE90633CDE90A6655
:10807000CDE90E36CDE91066474A484FDFF824B106
:1080800009960893B44698460C9399461C461D469B
:108090004FF4003118461296EAE67F23BFE7DDE988
:1080A0000312114403912A991C9B11442A910599AA
:1080B00011441D9A059101339A421C937FF491ABB0
:1080C0001FB0BDE8F08FB4F1604F6DDC02F10042EB
:1080D00074464FF0FF35D0E5B3F1604F00F3988060
:1080E00002F1004352001392B3F1404F139BD8BFEB
:1080F0004FF000431393FCE518BF00233FF482AB1D
:108100000325274C14954FF080404FF05A32194602
:1081100010F1804044F10004002C04DA6FF00045B7
:10812000401944F10004C00F40EA440002EB800211
:10813000D60F4FF08045002769E500254FF0FF314D
:10814000144A0991CDE90A11CDE90C15CDE9115177
:10815000079210911391CDE90E550F4F0F4B114817
:108160000895AB462C46AC464FF40032A8466FF05B
:1081700000416DE4ABAAAA2A94A8F5707BBEAF6358
:10818000F2CBA24D6CAC162FA4AA5211B72A5802FA
:1081900011FE0A00F8FFFF0100010040FFFF1F0071
:1081A0004B4B4B0BE0FFFF0F12EB84022BD501254D
:1081B00074464FF0FF3602FB01F1D01703FB0011AC
:1081C000A2FB03371B19394441EB0606002E04DAE3
:1081D0006FF000415B1846F10006DB0F43EA4603EF
:1081E000C3F10053D90FA9420BBF4FF08041714634
:1081F00000244FF0FF345AE5134681E700264FF084
:108200008045374603E500254FF080442E46D2E7EF
:1082100002EB83035A00B3F1804F1392FFF664AF71
:108220006FF00043139364E55300139361E500BFBF
:10823000DB4A002310B51946D2F8144118461A46F5
:1082400009F0EAFD00231A461846012109F0E4FD71
:1082500000231A461846022109F0DEFD00231A46C3
:108260001846032109F0D8FD00231A4618460421B8
:1082700009F0D2FD00231A461846052109F0CCFD6D
:1082800000231A461846062109F0C6FD00231A46A7
:108290001846072109F0C0FD00231A461846082198
:1082A00009F0BAFD00231A461846092109F0B4FD69
:1082B00000231A461846E4B20A2109F0ADFD022C4B
:1082C0004FF0000340F270811A4618460B2109F066
:1082D000A3FD00231A4618460C2109F09DFD00233A
:1082E0001A4618460D2109F097FD00231A46184634
:1082F0000E2109F091FD00231A4618460F2109F0BE
:108300008BFD00231A461946012009F085FD002344
:1083100001211A46084609F07FFD00231A46022172
:10832000012009F079FD00231A460321012009F0FC
:1083300073FD00231A460421012009F06DFD00237E
:108340001A460521012009F067FD00231A4606217F
:10835000012009F061FD00231A460721012009F0E0
:108360005BFD00231A460821012009F055FD00237A
:108370001A460921012009F04FFD00231A460A215F
:10838000012009F049FD00231A460B21012009F0C4
:1083900043FD00231A460C21012009F03DFD002376
:1083A0001A461946022009F037FD00231A4601211A
:1083B000022009F031FD00231A460321022009F0B2
:1083C0002BFD012304220721022009F025FD0023B3
:1083D0001A460821022009F01FFD00231A46092130
:1083E000022009F019FD00231A460A21022009F093
:1083F00013FD00231A460B21022009F00DFD002376
:108400001A461946032009F007FD00231A460121E8
:10841000032009F001FD00231A460221032009F080
:10842000FBFC002303211A46084609F0F5FC002353
:108430001A460421032009F0EFFC00231A46052107
:10844000032009F0E9FC00231A460921032009F062
:10845000E3FC00231A460A21032009F0DDFC002377
:108460001A460B21032009F0D7FC00231A460C21E1
:10847000032009F0D1FC00231A461946042009F014
:10848000CBFC00231A460121042009F0C5FC00237F
:108490001A460221042009F0BFFC00231A460321DA
:1084A000042009F0B9FC002304211A46084609F00B
:1084B000B3FC00231A460521042009F0ADFC00237B
:1084C0001A460621042009F0A7FC00231A460721BA
:1084D000042009F0A1FC00231A460821042009F019
:1084E0009BFC00231A460921042009F095FC002377
:1084F0001A460A21042009F08FFC00231A460B219A
:10850000042009F089FC00231A460C21042009F0FC
:1085100083FC00231A460D21042009F07DFC002372
:108520001A460E21042009F077FC00231A460F2179
:10853000042009F071FC00231A460321052009F0EC
:108540006BFC00231A460421052009F065FC00237A
:1085500005211A46084609F05FFC00231A46062149
:10856000052009F059FC00231A460721052009F0CF
:1085700053FC00231A460821052009F04DFC002376
:108580001A460921052009F047FC00231A460C2150
:10859000052009F041FC034B0122C3F82C2110BD3A
:1085A0000010084000600040184604220B2109F02A
:1085B00033FC00231A4618460C2109F02DFC002339
:1085C0001A4618460D2109F027FC00231A461846C2
:1085D0000E2109F021FC00231A4618460F2109F04C
:1085E0001BFC00231A461946012009F015FC002344
:1085F00001211A46084609F00FFC00231A46022101
:10860000012009F009FC00231A460321012009F08A
:1086100003FC00231A460421012009F0FDFB00237E
:108620001A460521012009F0F7FB00231A4606210E
:10863000012009F0F1FB00231A460921012009F06D
:10864000EBFB00231A460A21012009F0E5FB002379
:108650001A460B21012009F0DFFB00231A460C21EA
:10866000012009F0D9FB00231A461946022009F01F
:10867000D3FB00231A460121022009F0CDFB002381
:1086800004220321022009F0C7FB00231A46072118
:10869000022009F0C1FB00231A460821022009F03C
:1086A000BBFB00231A460921022009F0B5FB002379
:1086B0001A460A21022009F0AFFB00231A460B21BB
:1086C000022009F0A9FB00231A461946032009F0ED
:1086D000A3FB00231A460121032009F09DFB002380
:1086E0001A460221032009F097FB002303211A46B2
:1086F000084609F091FB00231A460421032009F0E3
:108700008BFB00231A460521032009F085FB00237B
:108710001A460921032009F07FFB00231A460A218B
:10872000032009F079FB012304220B21032009F027
:1087300073FB012304220C21032009F06DFB0422AA
:1087400010460123002109F067FB00231A4601218E
:108750000420013C09F060FB012C3FF698AE042296
:1087600001230221104609F057FB96E670B50C462E
:1087700086B00025064605A92046059514F00AFC9A
:10878000084B1A88059B0095013ACDE90125304632
:108790002A46214608F0ECFE03480DF095F806B095
:1087A00070BD00BF880A00200080084008B5044959
:1087B000044B402201200AF021F9002008BD00BF2F
:1087C0008C0A00209199000008B50449044B40220E
:1087D00002200AF013F9002008BD00BF8C0A002017
:1087E000D5970000027838B512F06005044605D12F
:1087F0004378062B19D06FF0020038BD6FF00200ED
:10880000C02AFAD16378012B23D0022BF5D1A3889B
:10881000072BF2D1E28822490023B22A28BFB222D4
:1088200018460AF0FBF9002038BD43881B0A212BAB
:108830001ED0222B28D00F2BDDD1C2881949392A0E
:1088400028BF39222B4628460AF0E8F92278284624
:10885000D6E7A388022BD0D1E288134900231B2A34
:10886000184628BF1B220AF0D9F963780020CCE70C
:10887000C2880E49092A28BF09222B4628460AF039
:10888000CDF922782846BBE7C28809491C2A28BFAF
:108890001C222B4628460AF0C1F922782846AFE769
:1088A000CCA0020068A0020080A10200A4A00200E7
:1088B000B0A00200052910B502D005280ED010BDC9
:1088C0000A4B0B49402201200AF098F8BDE81040FD
:1088D000084B0749402202200AF090B8012009F015
:1088E000C9FEBDE81040022009F0C4BE9199000005
:1088F0008C0A0020D59700002DE9F0412A4E2B4D1F
:1089000084B0044601212A4808F064F900270A23AC
:1089100069463046CDE9007702978DF802308DF830
:108920000C7009F0F5FCF368224A43F00103F36090
:108930004FF48053C2F880314FF0010813601120CA
:1089400085F8008008F0A8F9B4F57A7F28BF4FF4C5
:108950007A74830A04FB03F3174C03F5FA73A4FB40
:1089600003239B09F3617762C6F804802B7843B137
:10897000124A136923F00403136130BF2B78002BD4
:10898000F7D109480B4AC3684FF4805123F0010323
:10899000C360C2F8801009F01DFD0548002108F0F1
:1089A00019F904B0BDE8F081000401402C06002054
:1089B0000062040000E100E0D34D621000ED00E031
:1089C000364B2DE9F04FD3F81431DBB2022B87B0D0
:1089D00007461AD8324B334D08229A650FCD6C46A4
:1089E0000FC495E80300062684E803002E48ADF87E
:1089F0000A60012108F0EEF82C48694607F0FEFCF9
:108A00002A4800220A2107F0F1FC294DDFF88CA04A
:108A1000264C4FEA57081A26DAF81431DBB2022B3B
:108A20005FFA86F917D8214807F0D4FC63681F481D
:108A300008EB550BBBFBF7FBBBF13F0F28BF4FF01B
:108A40003F0B23F47C5343EA0B23636007F0C8FC1D
:108A5000A368DA07FCD5DAF81431DBB2022B02D8AE
:108A6000A3689B0706D4A5F5C455013EA5F11C05D6
:108A7000D2D1B146094BD3F81431DBB2022B09D85D
:108A80000A4807F0A7FC0848002108F0A3F8044BA7
:108A90000822DA65484607B0BDE8F08F00100840AC
:108AA00000600040B89F02000092040000100040E7
:108AB0002AC204002DE9F0478AB019F097FB012281
:108AC0001146022008F0CEFB0121112007F0E8FE3C
:108AD0000421112008F038FA00221146032008F082
:108AE000C1FBA448012108F075F80121A24808F053
:108AF00071F809F043FB054609F01EFB15F480747C
:108B000054D09E4B9A6AD20748D49C4B0022C3F89B
:108B1000102105AE15F01005984B1ABF984AC3F8FE
:108B20000C21C3F80C51FFF783FB0023012206211F
:108B3000022009F071F9002301220821032009F025
:108B40006BF90124062211462346CDE90044022098
:108B500009F026F9082223461146CDE900440320F6
:108B600009F01EF9874A0221C2F880111160864A75
:108B700007CA334603C340F201151A7031460D236C
:108B80008248ADF816508DF81C300CF0A9FE7F48D5
:108B900021460AB0BDE8F0470CF07CBED3F80421B2
:108BA00001210A44C3F804211963AEE7784F7948DC
:108BB000012108F00FF805AE4FF0F85303A938462D
:108BC0000393ADF8104007F047FC052305943146A8
:108BD0007460347238468DF8183040F20523ADF8D1
:108BE000153007F071FC01237B60BC6814F00104B0
:108BF000FBD17F6A664807F0FBFC6648214607F018
:108C0000E9FFFF2F7BD800221146012008F02AFB44
:108C100000221146104608F025FB002304220721FC
:108C2000012009F0F9F86420FFF766FE01231846D9
:108C30000422072109F0F0F80A20FFF75DFE564AEA
:108C40000023D2F81C7807211A46012009F0E4F825
:108C500027B9524A136843F4805313600122504FDE
:108C6000DFF844811146002008F0FCFA97E8030081
:108C700008234FF001094FF0000A05908DF81810F5
:108C80008DF816308DF814903046C8F8C0A509F05C
:108C90006FF85146022009F03FFA0837C8F8C0952E
:108CA000B4464FF003084FF4005E0FCFACE80F005E
:108CB0003B68CCF8003000272023304607938DF81E
:108CC0001580ADF818E08DF824708DF8147007F059
:108CD000EDFC2A4B01221A635A6B42F001025A63DF
:108CE0001A68304AD760264AC3F81441C3F808719D
:108CF000C3F80071C3F80471C3F810210AE7B7F58F
:108D0000007F34D3B7F5407F01D202247BE72246AF
:108D10002146204608F0A6FA012211461046204FAF
:108D2000DFF8848008F09EFA4FF47A70FFF7E4FDD4
:108D300097E8030004234FF0010905908DF81810FF
:108D40008DF816308DF814903046C8F8C04509F0FB
:108D50000FF82146022009F0DFF9C8F8C0954FF05E
:108D600003080837B44644464FF4805E9DE701246B
:108D700049E700BF00D20400004302000010084091
:108D80004433221100E100E0EC9F02000080084023
:108D9000002000400002050000000C4200800C4052
:108DA000D09F02000000024300008C43044A054BA0
:108DB000D2F81001C01AB0FA80F04009704700BF25
:108DC0000010084044332211044BD3F81401C0B200
:108DD000022894BF00200120704700BF0010084007
:108DE000112007F059BF00BF064B10B51C69A3073F
:108DF00002D4044B9C6110BD03480CF065FD014B8F
:108E00009C6110BD00000840008008400D4B10B56B
:108E1000D3F8144114F4A07F07D144F201031C429B
:108E200009D1084BC3F81C4110BD14F0A9F844F255
:108E300001031C42F5D014F09DF8024BC3F81C410D
:108E400010BD00BF00600040084B10B59C69E207F0
:108E500002D4064B1C6210BD586A00B214F098F898
:108E600003480CF031FD014B1C6210BD0020004096
:108E700000800840044B1B69DA0702D5034A002131
:108E80001170014A93617047000401402C060020D4
:108E900070B5154E154C84B005460121144807F0F5
:108EA00099FE3046012107F095FE00230122184665
:108EB0004FF4F01109F020F9002369462046CDE96E
:108EC000003302938DF80C3009F022FA304607F097
:108ED000E3FE084AB0FBF5F001230138E06163606E
:108EE000536004B070BD00BF007204000008014070
:108EF00000F2040000200040F0B5B2F5806F224D72
:108F00008DB088BF4FF4806306460F461F4898BF58
:108F10002A804FF001014FF0000488BF2B8007F03A
:108F200059FE1B4B089307A88DF81C4008F0D8FA8F
:108F3000184B194A0B935C601A604FF4807309A9AF
:108F40002046ADF824304FF400230A9308F07CFA51
:108F5000124B059305AA204601218DF8184008F010
:108F60009FFA05AA2146204608F09AFA2D880C4B54
:108F7000013DCDE90235CDE9005732462146204674
:108F800008F0E4F90DB0F0BD880A002000030200EB
:108F9000000C0020200600206D8700000103010066
:108FA000242000402DE9F04F1F46A44BD3F8143184
:108FB000DBB215465A1E012A97B081460E4640F292
:108FC0000681022B00F2A4809D4B0122C3F8A4204D
:108FD0004FF000089A4B4FF400621A61974B994882
:108FE000D3F814415FFA84FB974C012107F0F2FD9E
:108FF0000FCC0DF1080AAAE80F000FCCAAE80F0069
:1090000094E8030004F1080E8AE80300BEE80F00AC
:109010000DF1300CACE80F00BEE80F00ACE80F001B
:109020009EE80300BBF1020F8CE8030069D84FF4FF
:1090300000431093854B8649864AB9F1000F08BF5B
:109040001A46854B08BF0B46042E28BF0426012173
:1090500052F8262053F8263004924FF0402002AAFE
:109060000E9308F029FF0CAA02214FF0402008F0CF
:1090700023FF7448002107F0ADFD704B7748D3F80B
:109080001461012107F0A6FD802D28BF8025012D48
:1090900038BF01250024724B0293013D20468DF814
:1090A0000C508DF80D4007F0E3FA209A8DF80B0074
:1090B0000223802AF6B28DF8093075D0402A40D0BC
:1090C000202A00F0AB80102A00F0A080082A00F0CF
:1090D000AE80042A00F0AA80624D8DF8084002A9F3
:1090E000284607F0B9F94FF480332B610123CDE90D
:1090F0000C448DF83230209B8DF83840012B36D04F
:1091000032E04FF4000303934FF48023069391E77A
:10911000002319460122032008F07EFE01240022CC
:109120002346CDE900441146032008F039FE4E4B9A
:10913000D3F80031002B7DD1414B8022A046DA6567
:109140004CE705238DF80830464C02A9204607F06D
:1091500083F900234FF480322261CDE90C338DF87E
:10916000383001238DF8323003238DF83330022E4E
:1091700084BF02238DF8343040F20113102FADF874
:1091800035300DD0082F3DD0042F4BD0022F41D0C9
:1091900034480CA907F098F9404617B0BDE8F08FA5
:1091A00004238DF83130F3E72E4D062302A928461B
:1091B0008DF8083007F050F94FF480332B6101230C
:1091C000CDE90C448DF838408DF83230CCE70023DF
:1091D000184601220E2108F01FFE01240E2223460C
:1091E000CDE900441146002008F0DAFD1F4BD3F80A
:1091F000B833002B7FF4E8AE114B0422A046C3F82D
:10920000A420E7E603238DF83130C1E703238DF86E
:10921000083099E701238DF83130B9E704238DF840
:10922000083091E702238DF83130B1E701238DF842
:10923000083089E74FF00008D0E600BF0010084072
:109240000060004000120500F89F020004000020AA
:109250002C00002018000020400000200002050023
:109260000000031F0020004000100C4200000C42D0
:10927000774BD3F81431DBB2022B01D900207047B1
:1092800010B5744B74484FF4006294B0C3F880205A
:10929000012107F09FFC042210460023082108F05A
:1092A000BBFD042210460023092108F0B5FD04226D
:1092B000104600230A2108F0AFFD042210460023C7
:1092C0000B2108F0A9FD0422104600230C2108F010
:1092D000A3FD0422104600230D2108F09DFD042269
:1092E000104600230E2108F097FD042210460023AB
:1092F0000F2108F091FD0023184604220F2108F0E9
:109300008BFD002319461846042208F085FD002332
:1093100018460422012108F07FFD0023184604228C
:10932000022108F079FD002318460422032108F0E9
:1093300073FD002304221146184608F06DFD00233A
:1093400018460422052108F067FD00231846042270
:10935000062108F061FD042210460023012108F0D7
:109360005BFD002304220921022008F055FD0023A3
:1093700004220A21022008F04FFD04221146104663
:10938000002308F049FD042210460023052108F0BF
:1093900043FD042210460023062108F03DFD04226F
:1093A00010460023072108F037FD0023042208217E
:1093B000022008F031FD002319460422012008F0A4
:1093C0002BFD012108460023042208F025FD00237F
:1093D00004220921032008F01FFD002304220A2192
:1093E000032008F019FD002304220921052008F0BC
:1093F00013FD002304220821052008F00DFD0021A3
:10940000502268461EF00CFD9FED0D7B8DED107B0C
:109410009FED0D7B022201240623684603924FF044
:1094200080528DED087B8DF84C4004938DF82E40D2
:109430000A940D93129208F0DBF8204614B010BD88
:1094400000000100000048000200000003000000CE
:1094500000100840006000400053020000B970474F
:10946000FFF74ABA034A136923F00403136130BFBC
:10947000704700BF00ED00E0012008F0EFBB00BF27
:1094800038B5104D0446FEF7D3FE0F4800210CF00E
:1094900001FA0E4A0221A302296303F5FA73A968AF
:1094A000A2FB03239B09402B2CBFC918403100208D
:1094B00007F03CF96B6B43F002036B6308F040FC70
:1094C000FEE700BF0010084000800840D34D621046
:1094D0002DE9F041002382B002220B21052008F083
:1094E0009BFC604BD3F81431DBB2022B40F2B3800B
:1094F0005D485E4E5B4C5E4D032107F025FD5D48E7
:10950000012107F067FB5C4BD3F89030ADF80430D5
:109510001A0C4FF4A02100208DF8062008F0BCFEA4
:109520005648574AC3694FF0804143F00203C36174
:10953000C2F8801101A8116008F0BAFE514809F084
:109540000FF9514FD4F81431D7F8982C32B1DBB25F
:10955000012BD5F8203122D9012B22D16420FFF72D
:10956000CBF909F079F809F023FB09F0E3F83D4B5A
:10957000D3F8144108F0AAFEE4B23E48002107F0F7
:1095800029FB022C61D900231A460B21052008F083
:1095900043FC3378002B39D102B0BDE8F081012BB8
:1095A000DCD1337803F0FF08002BD7D1D5F82C3A63
:1095B000CBB9A36ADB070ED5D4F8043101221344DA
:1095C000C4F80431226309F0D5FA0028BAD001208A
:1095D00008F044FBB5E709F0CDFA0028B2D001202D
:1095E00008F03CFBADE7042205210123022008F02E
:1095F00013FC0120FFF780F94346022004220521D5
:1096000008F00AFC0120FFF777F9D2E71F48002194
:109610000CF040F91E48D0F8201121F00101C0F8EB
:109620002011012304220021052008F0F5FB4FF052
:10963000000018490860016881F3088881F30988EF
:1096400041688F4602B0BDE8F0810022114601203A
:1096500007F008FE97E701221146104607F002FEC8
:1096600046E700BF0010084002001A002D06002047
:1096700000100C4260161000B89F02000000084065
:1096800000E100E064A2020000000C4200800840FB
:109690000060004008ED00E010B50E4C0FCC88B023
:1096A0000DF1040CACE80F0094E8070000238CE8EF
:1096B00007000622012108488DF804308DF8143087
:1096C0008DF80E2007F086FA01A80CF06DF808B0AE
:1096D00010BD00BF4CA0020000E204004FF0804229
:1096E0000348136823F001030021136007F072BAE6
:1096F00000E204004FF080420D4B116821F001019F
:1097000011605168A0F27260A3FB00035B0921F0B5
:109710003F013F2B94BF194341F03F015160136853
:1097200043F0010313609368DB07FCD5704700BF6B
:10973000F1F0F0F04FF080439868C0F340007047BC
:1097400030B5224D0FCD89B001AC0FC495E80700AC
:10975000002384E80700062201211D488DF80E2011
:109760008DF804308DF8143007F034FA01A80CF0AD
:109770001BF83F214FF08042136823F00103136070
:10978000536823F03F030B435360136843F0010316
:1097900013609368D807FCD593689B0704D40139FC
:1097A000EAD140F2946404E001EB01114C0004F2B0
:1097B00094644FF080420648136823F001030021AF
:1097C000136007F007FA204609B030BD4CA0020034
:1097D00000E2040070B5664E664C357882B04022D7
:1097E000002120461EF01CFB6B1E2570092B0AD899
:1097F000DFE803F0122850576D737A89A5055E4A99
:109800000123137063705D4B5A494022822009F096
:1098100005FA002002B070BD5949D1F80401D1F811
:1098200000218D688B6A13F0010340F08E8052197D
:1098300043EB03019B1808449B0A43EA8053C4F896
:109840000130E0E7D6F801204D4BC4F801209868BC
:109850009102081A4FEA925262F10004C3F80441DF
:10986000484CC3F80001C3F80841986AC007CAD53C
:10987000D3F804010130C3F804019868091A62F1B1
:1098800000020120C3F80421C3F80011C3F8084105
:109890001863B8E73C4B3D4A03CBC4F80100516064
:1098A000B1E7FFF74DFF364AD2F81431DBB2022B95
:1098B00048D8D2F81431DBB2022B43D8FFF780F836
:1098C0000B283FD9A0F10B03DBB263709BE729495A
:1098D0004022052013F0B0FB95E7264A2449402397
:1098E000062013F0ABFB8EE7002301A8019313F0D1
:1098F00097FB019B002B86D024491A889B788B709C
:10990000A4F801207FE7002301A8019313F08EFB48
:10991000019B002B3FF477AF1C4A1D68586899687B
:10992000DE68C4F8015050609160D6601D695869C6
:109930009969DE69D66115615061916163E7012320
:10994000637060E7002363705DE7D1F80431013391
:10995000C1F80431D1F80401D1F800218B68D31883
:1099600040F100029B0A012043EA8253086366E744
:109970008C0A00200C0B00202D060020C987000057
:109980000010084044332211F081E00F0D0B00203D
:1099900070B5664E664C357882B040220021204674
:1099A0001EF03EFA6B1E2570092B0AD8DFE803F083
:1099B000122850576D737A89A5055E4A01231370EA
:1099C00063705D4B5A494022812009F027F900203D
:1099D00002B070BD5949D1F80401D1F800218D6859
:1099E0008B6A13F0010340F08E80521943EB0301A0
:1099F0009B1808449B0A43EA8053C4F80130E0E70F
:109A0000D6F801204D4BC4F8012098689102081A3D
:109A10004FEA925262F10004C3F80441484CC3F883
:109A20000001C3F80841986AC007CAD5D3F80401F9
:109A30000130C3F804019868091A62F1000201209C
:109A4000C3F80421C3F80011C3F808411863B8E74C
:109A50003C4B3D4A03CBC4F801005160B1E7FFF72E
:109A60006FFE364AD2F81431DBB2022B48D8D2F856
:109A70001431DBB2022B43D8FEF7A2FF0B283FD9EB
:109A8000A0F10B03DBB263709BE72949402205205C
:109A900013F0D2FA95E7264A24494023062013F012
:109AA000CDFA8EE7002301A8019313F0B9FA019BC8
:109AB000002B86D024491A889B788B70A4F801204B
:109AC0007FE7002301A8019313F0B0FA019B002B5C
:109AD0003FF477AF1C4A1D6858689968DE68C4F87F
